:100000000C9434000C945A000C945A000C945A002E
:100010000C945A000C945A000C94C3080C945A0087
:100020000C945A000C945A000C945A000C946603D9
:100030000C945A000C945A000C94D90B0C945A004E
:100040000C945A000C945A000C945A000C945A00C8
:100050000C945A000C945A000C945A000C943E07CD
:100060000C945A000C945A0011241FBECFEFD8E014
:10007000DEBFCDBF14BE88E10FB6F8948093600058
:10008000109260000FBE12E0A0E0B1E0EEEAF9E2EB
:1000900002C005900D92AE3DB107D9F713E0AEED69
:1000A000B2E001C01D92A039B107E1F70E945C00E7
:1000B0000C94D5140C9400000E944A0A85E690E046
:1000C0000E94020980E090E008950F931F93CF9360
:1000D000DF938091360190913701892BD1F000E0B8
:1000E00010E0C0E0D0E00E94E207080F191F21963F
:1000F000CE31D105C1F7C8010E9435140E943014D9
:1001000090E09093DF028093DE021092370110920C
:10011000360180E091E00E94BC070E94E2070E9445
:10012000070A8BE091E00E94BC0786E191E00E9403
:10013000BC078091DE029091DF020E94070A8BE0EB
:1001400091E00E94BC078091DE026FEF40E00E94C8
:10015000D20181E08093D00180E29EE40197F1F723
:100160000E94DE018091820390918303019709F040
:1001700079C080E060E00E94DD0780917E0390916D
:100180007F03819719F483E063E038C080917E0398
:1001900090917F0388971CF483E060E010C0809109
:1001A0007E0390917F03C29714F483E007C080918F
:1001B0007E0390917F03CC9724F480E063E040E0DD
:1001C0001EC080917E0390917F038634910524F4B4
:1001D00080E063E041E013C080917E0390917F0353
:1001E0008035910514F480E008C080917E039091E1
:1001F0007F038A3591052CF483E060E043E00E94A0
:100200009D0881E291E00E94BC078BE291E00E9490
:10021000BC0780917803909179030E94070A80912E
:100220007A0390917B030E94070A80917E0390914C
:100230007F030E94070A8BE091E00E94BC078BE0DD
:1002400091E00E94BC0788E893E128EC30E0F901D6
:100250003197F1F70197D9F780E060E040E00E9424
:100260009D089BC08091E0029091E10201969093DD
:10027000E1028093E0028832910544F083E090E04F
:100280009093E1028093E00280E052C080319105BA
:1002900004F5959587959595879560E040E00E94D7
:1002A0009D088091E0029091E102049769F480EA50
:1002B00060EA0E94DD0788EE93E028EC30E0F90167
:1002C0003197F1F70197D9F78091FC02609104030F
:1002D00059C0AC0155954795559547954C9754F5A0
:1002E000642F635080E040E00E949D088091E0020E
:1002F0009091E1024097D1F480E060E00E94DD0738
:1003000084EF91E028EC30E0F9013197F1F70197A3
:10031000D9F780EA60E00E94DD0788EE93E028ECE0
:1003200030E0F9013197F1F70197D9F780918D030A
:1003300060E028C0465080E060E00E949D08809107
:10034000E0029091E1024C97D1F480E060E00E94DD
:10035000DD0784EF91E028EC30E0F9013197F1F707
:100360000197D9F780E060EA0E94DD0788EE93E00C
:1003700028EC30E0F9013197F1F70197D9F7609156
:10038000030380E00E94DD0788E893E128EC30E079
:10039000F9013197F1F70197D9F7DF91CF911F91CB
:1003A0000F9108958093C9016093CA014093CB01D6
:1003B0008091CB018E7F8093CB010895A09186031D
:1003C000B0918703109283031092820320E030E003
:1003D000109719F4A3E0B0E001C01197FD01EE0FF2
:1003E000FF1FE859FC4F80819181019709F050C0AF
:1003F000F894FD01EE0FFF1FE05CFC4F80819181BE
:100400009093790380937803FD01EE0FFF1FE85B63
:10041000FC4F8081918190937B0380937A03FD014F
:10042000EE0FFF1FE05BFC4F8081918190937D0375
:1004300080937C03FD01EE0FFF1FE85AFC4F808183
:10044000918190937F0380937E03FD01EE0FFF1F48
:10045000E05AFC4F808191819093810380938003C7
:10046000AA0FBB1FFD01E059FC4F80819181909341
:10047000850380938403789481E090E090938303D4
:1004800080938203A859BC4F11961C921E92089526
:100490002F5F3F4F2430310509F09ACF0895CF9256
:1004A000DF92EF92FF920F931F93DF93CF93CDB71D
:1004B000DEB72C970FB6F894DEBF0FBECDBF282F46
:1004C00078948091E4029091E502019719F422E07A
:1004D00030E0ECC029836A834B832058260F240F19
:1004E0002C836E010894C11CD11CDE0115968D0170
:1004F0007D01F60161916F0170E09B012072307007
:10050000F3E035952795FA95E1F7CB01807190706E
:1005100095958795280F391FCB018074907055E011
:10052000959587955A95E1F7280F391FCB01880FCC
:10053000892F881F990B9195280F391FCB01817046
:100540009070880F991F880F991FAB0142705070EF
:10055000840F951F880F991F880F991FAB01447056
:100560005070840F951F880F991F880F991F68700E
:100570007070860F971F880F991F280F391F220F41
:10058000331F2F5F3F4FF801219331938F01CE141A
:10059000DF0409F0AECFF8948091E4029091E50277
:1005A0003091F902892B09F062C084B1832B84B9A0
:1005B00085B1832B85B90000000085B1232F2095DC
:1005C000822385B980E090E0000001968533910593
:1005D000D9F780E090E000B605FE0AC085B182231D
:1005E00085B984B1282324B9789423E030E05EC033
:1005F00000B605FE0AC085B1822385B984B12823DF
:1006000024B9789424E030E051C00196813C9105F2
:1006100011F725C040FF06C085B1832B85B90000C6
:10062000000005C085B1822385B90000000085B1B6
:10063000822385B980E090E0000001968332910525
:10064000D9F756954795615070408FEF6F3F780707
:1006500009F74D935D93AE17BF0719F414C0FE015F
:100660003D964D915C91119768E070E0D3CF85B1D4
:10067000932F9095892385B984B1982394B9789460
:1006800025E030E013C085B1822385B984B12823E9
:1006900024B980E090E00000019682339105D9F7FB
:1006A00080B7806180BF789421E030E0C9012C964A
:1006B0000FB6F894DEBF0FBECDBFCF91DF911F9173
:1006C0000F91FF90EF90DF90CF9008951F920F92BF
:1006D0000FB60F9211243F924F925F926F927F92CA
:1006E0008F929F92AF92BF92CF92DF92EF92FF9242
:1006F0000F931F932F933F934F935F936F937F932A
:100700008F939F93AF93BF93CF93DF93EF93FF9319
:1007100021E030E03093C8012093C7018091E202CC
:100720009091E302892B09F047C080917800909165
:10073000790090933F0380933E0310927C0043EB3B
:1007400040937A0091E090937B0080910503809321
:1007500088033093E3022093E2028091050388230B
:1007600009F442C0109288031092890310928A0300
:1007700010928B0310928C0390937C0040937A002C
:1007800090937B001092810010928500109284005B
:100790001092E3021092E2021092E5021092E4023B
:1007A0008091EC029091ED0203969093ED0280937C
:1007B000EC0285E085BD18C08091E2029091E302D1
:1007C000019709F5809178009091790090938F03BB
:1007D00080938E03809105038093890382E090E0EB
:1007E0009093E3028093E2028091F7029091F802E5
:1007F0002091780030917900820F931F9093F80236
:100800008093F70214C38091E2029091E302029771
:1008100039F48091050380938A0383E090E00CC053
:100820008091E2029091E302039759F480910503CD
:1008300080938B0384E090E09093E3028093E20244
:10084000F6C28091E2029091E302049709F0EFC2B0
:100850008091050380938C031092E3021092E202D0
:100860008091890390918A0320918B0330918C03AE
:10087000890F8058820F831709F0B2C280918803D4
:10088000882309F0ADC280918E0390918F03845824
:1008900093401CF033243A9499C020918E033091F8
:1008A0008F0380910603909107038217930714F436
:1008B00033248CC021E0422E512C20918E033091A4
:1008C0008F03E201CC0FDD1FCA5FDC4F8881998165
:1008D0008217930754F00894411C511C8EE048166F
:1008E000510459F78AE5382E71C068817981F20187
:1008F000EE0FFF1FEC5FFC4F20813181621B730BF9
:10090000882777FD8095982F0E9461109B01AC018C
:100910000E945E0E3B014C01E880F98060918E03DD
:1009200070918F03882777FD8095982F0E94611022
:100930005B016C010027F7FC0095102FC801B7017F
:100940000E9461107B018C01B201882777FD8095A0
:10095000982F0E94611020E030E040E05FE30E94A9
:100960008B0E20E030E040E050E00E945E0E9B01E4
:10097000AC01C401B3010E948B0E9B01AC01C80104
:10098000B7010E942D0E9B01AC01C601B5010E946A
:100990002D0E20E030E040E251E40E948B0E0E94D8
:1009A000BF107B018C01C401B3010E94BF109B01E9
:1009B000AC01C701B9010E948113882777FD80959A
:1009C000982F0E9461100E94B50C362E80918E03E4
:1009D00090918F038D5B92400CF4F3C020913E0305
:1009E00030913F0380912203909123038217930754
:1009F00014F455248EC011E0412E512C20913E0359
:100A000030913F03E201CC0FDD1FCE5DDC4F8881CA
:100A100099818217930744F00894411C511C8EE081
:100A20004816510459F727C268817981F201EE0F07
:100A3000FF1FE05EFC4F20813181621B730B882712
:100A400077FD8095982F0E9461109B01AC010E9458
:100A50005E0E3B014C01E880F98060913E0370918D
:100A60003F03882777FD8095982F0E9461105B01D6
:100A70006C010027F7FC0095102FC801B7010E94F8
:100A800061107B018C01B201882777FD8095982F3A
:100A90000E94611020E030E040E05FE30E948B0E96
:100AA00020E030E040E050E00E945E0E9B01AC018F
:100AB000C401B3010E948B0E9B01AC01C801B701B8
:100AC0000E942D0E9B01AC01C601B5010E942D0EA6
:100AD00020E030E040E251E40E948B0E0E94BF1003
:100AE0007B018C01C401B3010E94BF109B01AC01CA
:100AF000C701B9010E948113882777FD8095982F3F
:100B00000E9461100E94B50C562E2FEF621709F457
:100B100058C08FEF381611F4652D54C0E0908E0345
:100B2000F0908F03A0908E03B0908F03632D70E040
:100B300080E090E00E9413113B014C010027F7FC7C
:100B40000095102FC801B7010E9461109B01AC01F4
:100B500060E070E081E694E40E942D0E9B01AC0100
:100B6000C401B3010E948B0E3B014C01652D70E066
:100B700080E090E00E9413117B018C01CC24B7FC33
:100B8000C094DC2CC601B5010E94611020E030E069
:100B90004FE254E40E942D0E9B01AC01C801B70145
:100BA0000E948B0E9B01AC01C401B3010E945E0E3A
:100BB00020E030E048E453E40E94850F0E94B50C29
:100BC00001C0632D80918B0380FD6FC0E09186038F
:100BD000F09187038091890390E0EE0FFF1FE05CA6
:100BE000FC4F91838083E0918603F091870380918D
:100BF0008A0390E0EE0FFF1FE85BFC4F9183808338
:100C0000E0918603F091870380918B0390E0EE0FD3
:100C1000FF1FE05BFC4F91838083E0918603F0919E
:100C200087036F5D862F90E0EE0FFF1FE85AFC4FA1
:100C300091838083E0918603F091870380913E0346
:100C400090913F03EE0FFF1FE05AFC4F918380838A
:100C5000E0918603F0918703EE0FFF1FE859FC4FE8
:100C600081E090E091838083E0918603F091870397
:100C700080918E0390918F03EE0FFF1FE059FC4F80
:100C8000918380838091860390918703019690934E
:100C9000870380938603809186039091870304974E
:100CA00021F4109287031092860380918B0380FFBA
:100CB00097C080918A03882309F092C080918903AC
:100CC000893008F08DC02091CC013091CD01809108
:100CD000890390E02817390709F482C080918903BD
:100CE000833009F468C040E050E01FC0FA01EE0F05
:100CF000FF1FE350FD4F208131818091890390E0F7
:100D00002817390781F01092FE021092FD0210920E
:100D100000031092FF02109202031092010310923E
:100D2000F3021092F2024F5F5F4F8091F2029091B6
:100D3000F30248175907D4F28091F2029091F3021E
:100D40000397B4F4E091F202F091F30280918903E9
:100D500090E0EE0FFF1FE350FD4F91838083809161
:100D6000F2029091F30201969093F3028093F202C3
:100D70008091F2029091F3020397E9F48091890344
:100D800090E09093CD018093CC0181E090E090932E
:100D9000CF018093CE011092FE021092FD021092BC
:100DA00000031092FF0210920203109201031092AE
:100DB000F3021092F20280918903833089F421E0DA
:100DC00030E03093F5022093F4028091890390E0A3
:100DD0009093CD018093CC013093CF012093CE012D
:100DE00091E090937C0083EB80937A0090937B005A
:100DF0001092E5021092E402109288031092890387
:100E000010928A0310928B0310928C03109281002F
:100E100010928500109284008091EC029091ED0276
:100E20000C969093ED028093EC0285E085BD1092C4
:100E30000503FF91EF91DF91CF91BF91AF919F910A
:100E40008F917F916F915F914F913F912F911F9162
:100E50000F91FF90EF90DF90CF90BF90AF909F9059
:100E60008F907F906F905F904F903F900F900FBE4C
:100E70000F901F901895AAE55A2E4BCE1F920F92F5
:100E80000FB60F9211242F933F938F939F9320912E
:100E900084003091850015BC8091C7019091C801F4
:100EA000019711F5109285001092840081E08093E3
:100EB000810080917A008F7D80937A008091E20298
:100EC0009091E302892B29F489E08093890080E8DE
:100ED00004C088E08093890080E4809388001092A9
:100EE000C8011092C70139C084E02A3B3807D4F406
:100EF00082E0203A38075CF42359314024F4809191
:100F00000503805828C080910503805C24C02D5AB9
:100F1000334024F480910503805E1DC08091050359
:100F2000805F19C086E0243D38075CF4275C3540BB
:100F300024F480910503885F0EC0809105038C5FC7
:100F40000AC0215E374024F4809105038E5F03C000
:100F5000809105038F5F8093050381E090E090937B
:100F6000E5028093E4029F918F913F912F910F9022
:100F70000FBE0F901F901895AC0120E030E0FA01F1
:100F8000E20FF31F80818093C6008091C00085FF2F
:100F9000FCCF2F5F3F4F2A30310589F78AE08093DD
:100FA000C6008091C00085FFFCCF8DE08093C60015
:100FB0008091C00085FFFCCF08956093B3008093BB
:100FC000B40008958091E4029091E502892B19F014
:100FD0002FEF3FEF1AC0F89487E080937C00809158
:100FE0007A00806480937A0080917A0084FFFCCF3D
:100FF00091E090937C0082EB80937A0090937B0049
:1010000078942091780030917900C90108958091F9
:10101000E4029091E502892B19F06FEF7FEF2CC06D
:1010200080917A00F89486E080937C0080917A0029
:10103000806480937A0080917A0084FFFCCF78945A
:10104000609178007091790080E090E00E94131127
:101050002AEC34E541EC5BE30E948B0E24E237E995
:101060004FE75CE30E945E0E20E030E048EC52E483
:101070000E948B0E0E94BF10CB01089529B130E071
:101080002095309521703070C90108951092F502B5
:101090001092F402F89484E083BF14BE8091600043
:1010A00088618093600081E68093600014B815B871
:1010B00017B818B81AB81BB8789480917A008F774F
:1010C00080937A00A89583B7816083BF88957894D0
:1010D00034E021E61BC033BF14BE809160008861FC
:1010E000809360002093600014B815B817B818B842
:1010F0001AB81BB8789480917A008F7780937A0021
:10110000A89583B7816083BF889578948091F40215
:101110009091F502892BF9F2539A239A8091B000AD
:10112000816A8093B0008091B10082608093B100A9
:101130001092B4001092B3000895982F40FF02C09F
:101140003D9A01C03D98842F859580FF02C03C9A4E
:1011500001C03C9890FF02C0559A01C05598892F54
:10116000859580FF02C0549A01C0549860FF02C068
:101170003B9A01C03B98862F859580FF02C03A9A22
:1011800008953A9808951F920F920FB60F92112466
:101190002F933F934F935F936F937F938F939F937F
:1011A000AF93BF93EF93FF93A895529A5A9AEAE7A9
:1011B000F0E0808180688083E0E6F0E080818861F3
:1011C00080831082789483E063E043E00E949D086E
:1011D00080E29EE40197F1F780E060E040E00E9449
:1011E0009D08FF91EF91BF91AF919F918F917F915A
:1011F0006F915F914F913F912F910F900FBE0F9084
:101200001F901895BF92CF92DF92EF92FF920F93AB
:101210001F93CF93DF93EC0150EAC52E5FE0D52EEC
:1012200008EC10E045E0B42E30E2E32E3EE4F32E6D
:101230008091CE019091CF01019709F0D0C010921A
:10124000F60278941092CF011092CE018091CC01D9
:101250009091CD01019751F41092B4001092B30017
:101260005C981092D00115BC0C9400388091CC0190
:101270009091CD01029741F41092D0011092F502A5
:101280001092F4020E9446088091CC019091CD0109
:10129000039731F08091CC019091CD01049751F5E5
:1012A00080E060E040E00E949D081092B40010923F
:1012B000B3005C981092D00114C083E063E040E07A
:1012C0000E949D08C7010197F1F780E060E040E0CF
:1012D0000E949D0880E197E2F8013197F1F70197AC
:1012E000D9F78091CE019091CF01892B31F381E024
:1012F0008093D0018091CC019091CD01059781F52B
:101300001092B4001092B3005C9815BC1092D001FA
:101310001DC00E9407088159914014F080E00FC061
:101320000E9407088758914024F080E060E043E085
:101330000BC00E9407088F5591401CF083E063E0CA
:1013400002C083E060E040E00E949D088091CE01F1
:101350009091CF01892BE9F281E08093D001B5BC57
:101360008091CC019091CD01069729F481E0809382
:10137000D0018093F6028091CC019091CD01079726
:10138000D9F41092B4001092B3005C9815BC10927E
:10139000D00108C0489906C02AC0F8013197F1F77A
:1013A0000197D9F78091CE019091CF01892B91F3CC
:1013B00081E08093D001B5BC8091CC019091CD01AA
:1013C000089769F4F89428E088E190E00FB6F89463
:1013D000A895809360000FBE20936000FFCF80919E
:1013E000F602813009F024CFFE01099521CF81E07A
:1013F00060E040E00E949D08C6010197F1F780E09F
:1014000060E040E00E949D0880ED97E0C6CFEF923B
:10141000FF920F931F93DF93CF93CDB7DEB72A9739
:101420000FB6F894DEBF0FBECDBF8E010F5F1F4F0A
:1014300078019E01255F3F4FF70111927F01E2176E
:10144000F307D1F7BE016F5F7F4F4AE050E00E9483
:101450004014F80180818093C6008091C00085FF10
:10146000FCCF0F5F1F4F0E151F0599F780E2809389
:10147000C6008091C00085FFFCCF2A960FB6F89475
:10148000DEBF0FBECDBFCF91DF911F910F91FF90B7
:10149000EF900895CF92DF92EF92FF920F931F93F8
:1014A000CF93DF931092FE021092FD021092000380
:1014B0001092FF021092020310920103109269032E
:1014C0001092680310926B0310926A0310926D03DE
:1014D00010926C0310926F0310926E0314B815B83B
:1014E00017B818B81AB81BB8529A5A9A81E090E007
:1014F0000E94611480936600519A81E090E090937D
:10150000C5008093C4001092C0008091C100886023
:101510008093C1008091C20086608093C20088E3FE
:1015200091E00E94BC07539A239A8091B000816A8F
:101530008093B0008091B10082608093B1001092DE
:10154000B4001092B30080B78B6080BF83E08093BB
:101550007F0010927C0083EC80937A0010928000D0
:1015600081E08093810092E090936F0082E380930A
:1015700089001092880014BC85E085BD90936E00B0
:101580008FEF87BDCC24DD24C0E2D0E0CE010E94E5
:10159000611490E08601000F111F0E5D1C4FF801D1
:1015A0009183808380819181982F88279183808384
:1015B000E080F180CE0101960E946114E80EF11CDA
:1015C000F801F182E0820894C11CD11C2296FEE051
:1015D000CF16D104D9F6CC24DD24C0E5D0E0CE016D
:1015E0000E94611490E08601000F111F0A5F1C4FDA
:1015F000F8019183808380819181982F882791833E
:101600008083E080F180CE0101960E946114E80E93
:10161000F11CF801F182E0820894C11CD11C2296D1
:10162000FEE0CF16D104D9F684E090E00E94611468
:1016300080938D0388E090E00E94611480930303FF
:101640008BE090E00E9461148093FC0283E190E0C3
:101650000E9461148093040380E990E00E94611469
:101660008093F90283E491E00E94BC0788E591E051
:101670000E94BC0783E491E00E94BC078DE691E0E4
:101680000E94BC07C0E0D0E0FE01EE0FFF1FEE5D40
:10169000FC4F808191810E94070A2196CE30D105AE
:1016A00099F783E491E00E94BC0780E891E00E94F2
:1016B000BC07C0E0D0E0FE01EE0FFF1FEA5FFC4F69
:1016C000808191810E94070A2196CE30D10599F739
:1016D00083E491E00E94BC0784E991E00E94BC078A
:1016E0008091F90290E00E94070A80EA91E00E944E
:1016F000BC078DEA91E00E94BC078091660090E0F3
:101700000E94070A80EA91E00E94BC0789EB91E001
:101710000E94BC0780EA91E00E94BC0781E060E083
:1017200040E00E949D0888EB9BE028EC30E0F90146
:101730003197F1F70197D9F780E061E040E00E942E
:101740009D0888EB9BE028EC30E0F9013197F1F738
:101750000197D9F780E060E041E00E949D0888EBA6
:101760009BE028EC30E0F9013197F1F70197D9F7C8
:1017700080E060E040E00E949D081092D0017894E3
:10178000109269031092680310926B0310926A031F
:1017900010926D0310926C0310926F0310926E03FF
:1017A000DF91CF911F910F91FF90EF90DF90CF903D
:1017B00008951F920F920FB60F9211242F933F930B
:1017C0004F935F936F937F938F939F93AF93BF9349
:1017D000EF93FF932091EE023091EF028091EC02A3
:1017E0009091ED02820F931F9093EF028093EE028F
:1017F0002091EC023091ED028091FA029091FB026F
:10180000820F931F9093FB028093FA022091E602CD
:101810003091E7028091EC029091ED02820F931FCC
:101820009093E7028093E6022091EA023091EB0266
:101830008091EC029091ED02820F931F9093EB0246
:101840008093EA022091F0023091F1028091EC0243
:101850009091ED02820F931F9093F1028093F0021A
:101860002091E8023091E9028091EC029091ED0222
:1018700064E670E00E948113260F371F3093E9025F
:101880002093E8028091E8029091E90281509D47FF
:1018900020F01092E9021092E8028FEF90E090930E
:1018A000ED028093EC028FEF87BD8091EE02909164
:1018B000EF02875292406CF18091D001813049F55E
:1018C0008091E4029091E502892BA1F48091C901F5
:1018D0006091CA014091CB0190E070E050E00E941D
:1018E0004F02009739F0019729F41092EF021092FD
:1018F000EE020FC00E9430146FEF70E00E9481135F
:101900009093ED028093EC028091EC029091ED02B5
:1019100087BD8091FA029091FB02885F9840A4F005
:101920001092FB021092FA021092FE021092FD0237
:10193000109200031092FF02109202031092010312
:101940001092F3021092F202FF91EF91BF91AF91CA
:101950009F918F917F916F915F914F913F912F91C7
:101960000F900FBE0F901F901895EF92FF920F935C
:101970001F937B018C0120E030E040E05FE40E9497
:10198000311088238CF0C801B70120E030E040E03E
:101990005FE40E942D0E0E94BF109B01AC012050FD
:1019A00030404040504806C0C801B7010E94BF10F7
:1019B0009B01AC01B901CA011F910F91FF90EF90FB
:1019C0000895A0E0B0E0E7EEFCE00C94A813DC0181
:1019D0002B01FA019C91923008F439C1EB01888106
:1019E000823008F433C1943069F4843009F02FC197
:1019F00011969C9111978981981709F428C1A1ED3E
:101A0000B1E025C1843009F421C18230A9F49230BB
:101A100009F01DC19A01AD0188E0EA010990AE010B
:101A2000E90109929E018150C1F7E2018981119675
:101A30009C918923818308C1923009F407C11296D1
:101A40002D903C901397EB018A819B811496AD9069
:101A5000BD90CD90DC901797EC80FD800E811F81AA
:101A60009101281B390BB90137FF04C0662777277E
:101A7000621B730B603271050CF061C01216130605
:101A80006CF537014801062E04C09694879477942C
:101A900067940A94D2F721E030E040E050E004C0BF
:101AA000220F331F441F551F6A95D2F72150304033
:101AB000404050402E213F21402351232115310524
:101AC0004105510521F021E030E040E050E079018E
:101AD0008A01E628F728082919293CC0232BD1F1CF
:101AE000260E371E35014601062E04C096948794B3
:101AF000779467940A94D2F721E030E040E050E018
:101B000004C0220F331F441F551F6A95D2F721507E
:101B10003040404050402A213B214C215D2121157D
:101B200031054105510521F021E030E040E050E071
:101B300059016A01A628B728C828D9280BC08215E0
:101B400093052CF01C01AA24BB24650103C0EE24DC
:101B5000FF24870111969C91D20111968C919817C0
:101B600009F445C0992339F0A80197012A193B09C6
:101B70004C095D0906C0A60195012E193F09400BCD
:101B8000510B57FD08C01182338222822483358392
:101B9000468357831DC081E0818333822282882758
:101BA0009927DC01821B930BA40BB50B84839583CF
:101BB000A683B7830DC0220F331F441F551F2483F4
:101BC00035834683578382819381019793838283F0
:101BD0002481358146815781DA01C9010197A10924
:101BE000B1098F5F9F4FAF4FBF4328F30BC0918365
:101BF00033822282EA0CFB1C0C1D1D1DE482F5823F
:101C00000683178383E08083248135814681578151
:101C100057FF1AC0C901AA2797FDA095BA2F817056
:101C20009070A070B0705695479537952795822B88
:101C3000932BA42BB52B84839583A683B7838281B2
:101C40009381019693838283DF0101C0D201CD018C
:101C5000CDB7DEB7E2E10C94C413A0E2B0E0E3E359
:101C6000FEE00C94B41369837A838B839C832D8369
:101C70003E834F835887E9E0EE2EF12CEC0EFD1EDB
:101C8000CE010196B7010E94B0128E010F5E1F4F68
:101C9000CE010596B8010E94B0128A8991E0892789
:101CA0008A8BC701B801AE01475E5F4F0E94E10C0D
:101CB0000E94DB11A096E6E00C94D013A0E2B0E005
:101CC000E4E6FEE00C94B41369837A838B839C83EF
:101CD0002D833E834F835887F9E0EF2EF12CEC0ED5
:101CE000FD1ECE010196B7010E94B0128E010F5E5B
:101CF0001F4FCE010596B8010E94B012C701B8016E
:101D0000AE01475E5F4F0E94E10C0E94DB11A0967E
:101D1000E6E00C94D013A0E2B0E0E1E9FEE00C9420
:101D2000A81369837A838B839C832D833E834F839F
:101D30005887CE010196BE01675F7F4F0E94B012A7
:101D4000CE010596BE016F5E7F4F0E94B01299854D
:101D5000923088F089898230C8F0943019F482304A
:101D600051F404C0843029F4923081F481ED91E083
:101D7000C6C0923049F420E09A858A89981321E000
:101D80002A87CE010996BBC0823049F420E09A85AB
:101D90008A89981321E02A8BCE014196B0C02D8408
:101DA0003E844F8458886D887E888F88988CEE2476
:101DB000FF248701AA24BB24650140E050E060E0D5
:101DC00070E0E0E0F0E0C10181709070892BE9F0F3
:101DD000E60CF71C081D191D9A01AB012A0D3B1DCD
:101DE0004C1D5D1D80E090E0A0E0B0E0E614F7043B
:101DF0000805190520F481E090E0A0E0B0E0BA0108
:101E0000A901480F591F6A1F7B1FAA0CBB1CCC1CC1
:101E1000DD1C97FE08C081E090E0A0E0B0E0A82AB9
:101E2000B92ACA2ADB2A3196E032F10549F0660C5C
:101E3000771C881C991C5694479437942794C3CFD9
:101E4000FA85EA892B893C898B859C85280F391F67
:101E50002E5F3F4F17C0CA0181709070892B61F0CF
:101E600016950795F794E79480E090E0A0E0B0E83D
:101E7000E82AF92A0A2B1B2B7695679557954795E3
:101E80002F5F3F4F77FDE7CF0CC0440F551F661FF4
:101E9000771F17FD4160EE0CFF1C001F111F215022
:101EA0003040403090E0590790E0690790E47907AE
:101EB00060F32B8F3C8FDB01CA018F779070A0708D
:101EC000B07080349105A105B10561F447FD0AC0E9
:101ED000E114F1040105110529F0405C5F4F6F4FDB
:101EE0007F4F40781A8EFE1711F081E08A8F4D8F58
:101EF0005E8F6F8F78A383E0898FCE0149960E9411
:101F0000DB11A096E2E10C94C413A8E1B0E0EBE889
:101F1000FFE00C94B01369837A838B839C832D83B9
:101F20003E834F835887B9E0EB2EF12CEC0EFD1E5B
:101F3000CE010196B7010E94B0128E010F5E1F4FB5
:101F4000CE010596B8010E94B0122985223008F40E
:101F50007EC03989323010F4B8017CC08A859A89F4
:101F600089278A87243011F0223031F4231709F0B1
:101F70006EC061ED71E06EC0343039F41D861E868E
:101F80001F86188A1C861B8604C0323021F484E028
:101F90008987B7015FC02B853C858B899C89281B6D
:101FA000390B3C872B87ED84FE840F851889AD881B
:101FB000BE88CF88D88CEA14FB040C051D0540F4BC
:101FC000EE0CFF1C001F111F215030403C872B8757
:101FD00020E030E040E050E080E090E0A0E0B0E4BD
:101FE00060E070E0EA14FB040C051D0540F0282BAE
:101FF000392B4A2B5B2BEA18FB080C091D09B695F7
:10200000A79597958795EE0CFF1C001F111F6F5F1A
:102010007F4F6F31710531F7DA01C9018F77907009
:10202000A070B07080349105A105B10561F427FD61
:102030000AC0E114F1040105110529F0205C3F4FAD
:102040004F4F5F4F20782D873E874F87588BBE01BB
:10205000675F7F4FCB010E94DB116896EAE00C942A
:10206000CC13A8E1B0E0E7E3F0E10C94B41369838A
:102070007A838B839C832D833E834F83588789E0AB
:10208000E82EF12CEC0EFD1ECE010196B7010E9448
:10209000B0128E010F5E1F4FCE010596B8010E944F
:1020A000B0128985823040F08989823028F0C701DA
:1020B000B8010E94281301C08FEF6896E6E00C94E7
:1020C000D013A8E0B0E0E7E6F0E10C94B1139B0177
:1020D000AC0183E08983DA01C9018827B7FD8395C4
:1020E0009927AA27BB27B82E21153105410551058F
:1020F00019F482E089833AC08823A9F0203080E077
:10210000380780E0480780E8580729F460E070E06D
:1021100080E09FEC30C0EE24FF248701E21AF30A2E
:10212000040B150B02C079018A018EE1C82ED12C57
:10213000DC82CB82ED82FE820F831887C801B70153
:102140000E948C1101971816190684F4082E04C0F9
:10215000EE0CFF1C001F111F0A94D2F7ED82FE82C5
:102160000F831887C81AD90ADC82CB82BA82CE01C3
:1021700001960E94DB112896E9E00C94CD13ACE0A7
:10218000B0E0E5ECF0E10C94B81369837A838B83BB
:102190009C83CE010196BE016B5F7F4F0E94B012FF
:1021A0008D81823061F1823050F1843021F48E8152
:1021B000882351F12EC02F81388537FD20C06E81D4
:1021C0002F3131051CF06623F9F023C08EE190E039
:1021D000821B930B29853A854B855C8504C05695F7
:1021E0004795379527958A95D2F76623B1F0509594
:1021F0004095309521953F4F4F4F5F4F0EC020E0E7
:1022000030E040E050E009C02FEF3FEF4FEF5FE7D5
:1022100004C020E030E040E050E8B901CA012C964B
:10222000E2E00C94D413A8E0B0E0E9E1F1E10C9411
:10223000B0137B018C01611571058105910519F4BD
:1022400082E0898360C083E089838EE1C82ED12C2F
:10225000DC82CB82ED82FE820F831887C801B70132
:102260000E948C11FC013197F7FF3BC022273327D6
:102270002E1B3F0B57016801022E04C0D694C79451
:10228000B794A7940A94D2F740E050E060E070E081
:1022900081E090E0A0E0B0E004C0880F991FAA1F81
:1022A000BB1F2A95D2F70197A109B1098E219F2161
:1022B000A023B1230097A105B10521F041E050E032
:1022C00060E070E04A295B296C297D294D835E839B
:1022D0006F8378878EE190E08E1B9F0B9C838B83AE
:1022E00012C0309781F00E2E04C0EE0CFF1C001FB0
:1022F000111F0A94D2F7ED82FE820F831887CE1A3F
:10230000DF0ADC82CB821A82CE0101960E94DB11A9
:102310002896EAE00C94CC13EF92FF920F931F9350
:102320007B018C0180E0E81680E0F80681E0080778
:1023300080E0180788F48FEFE816F1040105110515
:1023400031F028F088E090E0A0E0B0E017C080E035
:1023500090E0A0E0B0E012C080E0E81680E0F8066F
:1023600080E0080781E0180728F088E190E0A0E00D
:10237000B0E004C080E190E0A0E0B0E020E230E016
:1023800040E050E0281B390B4A0B5B0B04C016954C
:102390000795F794E7948A95D2F7F701E752FE4F35
:1023A0008081281B310941095109C9011F910F91F1
:1023B000FF90EF900895DF92EF92FF920F931F939B
:1023C000FC01E480F58006811781D1808081823014
:1023D00048F480E090E0A0E1B0E0E82AF92A0A2B76
:1023E0001B2BA5C0843009F49FC0823021F4EE2459
:1023F000FF24870105C0E114F1040105110519F45A
:10240000E0E0F0E096C0628173819FEF6238790767
:102410000CF05BC022E83FEF261B370B2A31310559
:102420002CF020E030E040E050E02AC0B801A701E5
:10243000022E04C076956795579547950A94D2F772
:1024400081E090E0A0E0B0E004C0880F991FAA1FCF
:10245000BB1F2A95D2F70197A109B1098E219F21AF
:10246000A023B1230097A105B10521F081E090E000
:10247000A0E0B0E09A01AB01282B392B4A2B5B2B53
:10248000DA01C9018F779070A070B0708034910527
:10249000A105B10539F427FF09C0205C3F4F4F4F1C
:1024A0005F4F04C0215C3F4F4F4F5F4FE0E0F0E0D3
:1024B0002030A0E03A07A0E04A07A0E45A0710F055
:1024C000E1E0F0E079018A0127C06038710564F528
:1024D000FB01E158FF4FD801C7018F779070A070C2
:1024E000B07080349105A105B10539F4E7FE0DC047
:1024F00080E490E0A0E0B0E004C08FE390E0A0E0D2
:10250000B0E0E80EF91E0A1F1B1F17FF05C0169545
:102510000795F794E794319687E016950795F79419
:10252000E7948A95D1F705C0EE24FF248701EFEFE9
:10253000F0E06E2F679566276795902F9F77D79469
:10254000DD24D7948E2F8695492F462B582F5D2951
:10255000B701CA011F910F91FF90EF90DF9008958E
:10256000FC01DB01408151812281622F6F7770E095
:10257000221F2227221F9381892F880F822B282F29
:1025800030E0991F9927991F11969C931197211557
:102590003105A9F5411551056105710511F482E078
:1025A00037C082E89FEF13969C938E9312979A01FF
:1025B000AB0167E0220F331F441F551F6A95D1F707
:1025C00083E08C930DC0220F331F441F551F1296BA
:1025D0008D919C911397019713969C938E931297CC
:1025E000203080E0380780E0480780E4580758F33F
:1025F00014962D933D934D935C93179708952F3F19
:10260000310579F4411551056105710519F484E02E
:102610008C93089564FF03C081E08C9312C01C92D8
:1026200010C02F57304013963C932E93129783E09F
:102630008C9387E0440F551F661F771F8A95D1F74B
:10264000706414964D935D936D937C9317970895E2
:102650001F93DC01FB019C91923008F447C08081FC
:10266000823008F443C0943051F411961C918430A8
:1026700099F58181682F70E0611B71093FC084303A
:1026800021F0923031F48230B9F18181882389F1CF
:102690002DC011961C9111978230F1F0818118178D
:1026A000D9F412962D913C911397828193818217D0
:1026B000930794F028173907BCF014968D919D91DB
:1026C0000D90BC91A02D248135814681578128171A
:1026D00039074A075B0718F4112341F00AC0821733
:1026E0009307A407B50740F4112319F061E070E0E7
:1026F00005C06FEF7FEF02C060E070E0CB011F917B
:10270000089597FB092E07260AD077FD04D00CD038
:1027100006D000201AF4709561957F4F0895F6F762
:10272000909581959F4F0895AA1BBB1B51E107C04F
:10273000AA1FBB1FA617B70710F0A61BB70B881F51
:10274000991F5A95A9F780959095BC01CD010895E0
:102750002F923F924F925F926F927F928F929F92B1
:10276000AF92BF92CF92DF92EF92FF920F931F939F
:10277000CF93DF93CDB7DEB7CA1BDB0B0FB6F89450
:10278000DEBF0FBECDBF09942A88398848885F8490
:102790006E847D848C849B84AA84B984C884DF8001
:1027A000EE80FD800C811B81AA81B981CE0FD11DE5
:1027B0000FB6F894DEBF0FBECDBFED010895A0E0C7
:1027C000B0E0E5EEF3E10C94B013EC01A880B98021
:1027D000CA80DB80A114B104C104D10441F484E2B5
:1027E000A82E89EDB82E8BE5C82E87E0D82EC6011D
:1027F000B5012DE133EF41E050E00E94981427EA43
:1028000031E440E050E00E9479147B018C01C60164
:10281000B5012DE133EF41E050E00E949814CA0168
:10282000B9012CEE34EF4FEF5FEF0E9479146E0D7B
:102830007F1D801F911F97FF04C061507040804032
:102840009048688379838A839B839B013F77C90182
:10285000CDB7DEB7EAE00C94CC130E94DF130895E5
:1028600089ED92E00E94DF130895A0E0B0E080932C
:10287000D9029093DA02A093DB02B093DC020895B0
:10288000FB019F01E8944230C4F04532B4F44A3071
:1028900029F497FB1EF4909581959F4F642F77271D
:1028A0000E949413805D8A330CF0895D8193CB0183
:1028B0000097A1F716F45DE251931082C9010C94C0
:1028C0006914F999FECF92BD81BDF89A992780B518
:1028D0000895DC01FC01672F71917723E1F73297AE
:1028E00004C07C916D9370836291AE17BF07C8F3EB
:1028F0000895629FD001739FF001829FE00DF11D4A
:10290000649FE00DF11D929FF00D839FF00D749F69
:10291000F00D659FF00D9927729FB00DE11DF91F15
:10292000639FB00DE11DF91FBD01CF011124089572
:1029300097FB092E05260ED057FD04D014D00AD0DF
:10294000001C38F450954095309521953F4F4F4FDE
:102950005F4F0895F6F790958095709561957F4F3C
:102960008F4F9F4F0895A1E21A2EAA1BBB1BFD019A
:102970000DC0AA1FBB1FEE1FFF1FA217B307E4075E
:10298000F50720F0A21BB30BE40BF50B661F771FB6
:10299000881F991F1A9469F7609570958095909596
:0E29A0009B01AC01BD01CF010895F894FFCF5B
:1029AE00616D6269656E74206C3A002020202020D3
:1029BE002020202020006F776E2069643A2020208E
:1029CE000072656365697665643A006964206D65B9
:1029DE007320646973000100737461727420696EF0
:1029EE00697400202020202020202020202020205C
:1029FE00202020202020200043616C6962726174C7
:102A0E00696F6E206461746120202020006C6F77E6
:102A1E00206761696E2020202020202020202000A9
:102A2E0068696768206761696E2020202020202059
:102A3E002020200074786D61736B202020202000F0
:102A4E00202020202020202020202020004F534313
:102A5E0043414C20202020200070726F6772616D00
:102A6E00207374617274000100C8C8C803000100AD
:102A7E000100000000000000000001020203030339
:102A8E0003040404040404040405050505050505F2
:102A9E0005050505050505050506060606060606D1
:102AAE0006060606060606060606060606060606B8
:102ABE0006060606060606060607070707070707A1
:102ACE000707070707070707070707070707070788
:102ADE000707070707070707070707070707070778
:102AEE000707070707070707070707070707070768
:102AFE000707070707070707070808080808080851
:102B0E000808080808080808080808080808080837
:102B1E000808080808080808080808080808080827
:102B2E000808080808080808080808080808080817
:102B3E000808080808080808080808080808080807
:102B4E0008080808080808080808080808080808F7
:102B5E0008080808080808080808080808080808E7
:102B6E0008080808080808080808080808080808D7
:0E2B7E00080808080808080808010000000000
:00000001FF
