:100000000C9434000C9446000C9446000C9446006A
:100010000C9446000C9446000C9446000C94460048
:100020000C9446000C9446000C9446000C94460038
:100030000C9446000C9446000C9446000C94460028
:100040000C9446000C9446000C94BD000C944600A1
:100050000C9446000C9446000C9446000C94460008
:100060000C9446000C94460011241FBECFEFD4E040
:10007000DEBFCDBF11E0A0E0B1E001C01D92A13014
:10008000B107E1F70E9448000C94F6000C940000C0
:10009000DF93CF93CDB7DEB760970FB6F894DEBF8E
:1000A0000FBECDBFE4E2F0E08FEF8083E7E2F0E047
:1000B00081E08083EAE2F0E082E180830E94A00098
:1000C0001D861E861F86188A0BC08D859E85AF856E
:1000D000B8890196A11DB11D8D879E87AF87B88B0A
:1000E0008D859E85AF85B889803325E7920720E00E
:1000F000A20720E0B2074CF3E8E2F0E081E0808361
:1001000019861A861B861C860BC089859A85AB8545
:10011000BC850196A11DB11D89879A87AB87BC87D5
:1001200089859A85AB85BC85803127E2920720E0DE
:10013000A20720E0B2074CF3E8E2F0E01082C0CF63
:10014000DF93CF93CDB7DEB7F894A1ECB0E0E1EC4C
:10015000F0E0808188698C93A2ECB0E0E2ECF0E002
:10016000808186608C93E4ECF0E089E190E09183FB
:1001700080837894CF91DF9108951F920F920FB6EC
:100180000F9211248F93AF93BF93EF93FF93DF935D
:10019000CF930F92CDB7DEB7E6ECF0E08081898394
:1001A000A5E2B0E0E5E2F0E0808182608C93898195
:1001B000813439F4E8E2F0E081E0808381E08093EB
:1001C00000018981813629F4E8E2F0E01082109282
:1001D00000010F90CF91DF91FF91EF91BF91AF910F
:1001E0008F910F900FBE0F901F901895F894FFCF2E
:00000001FF
