:107000000C9434380C9446380C9446380C9446381A
:107010000C9446380C9446380C9446380C944638F8
:107020000C9446380C9446380C9446380C944638E8
:107030000C9446380C9446380C9446380C944638D8
:107040000C9446380C9446380C944C3B0C944638BF
:107050000C9446380C9446380C9446380C944638B8
:107060000C9446380C94463811241FBECFEFD8E05C
:10707000DEBFCDBF11E0A0E0B1E001C01D92A6309F
:10708000B107E1F70E943B390C94623B0C94003845
:10709000F894E1ECF0E0808188698083E2ECF0E034
:1070A00080818660808389E190E09093C500809321
:1070B000C40078940895CF92DF92EF92FF920F93DD
:1070C0001F93DF93CF93CDB7DEB72C970FB6F8940D
:1070D000DEBF0FBECDBF7894539A89836A834B83FA
:1070E0008058860F840F8C836E010894C11CD11CBC
:1070F000DE0115968D017D01F60161916F0170E051
:107100009B0120723070F3E035952795FA95E1F7F1
:10711000CB018071907095958795280F391FCB0111
:107120008074907055E0959587955A95E1F7280FF2
:10713000391FCB01880F892F881F990B9195280F34
:10714000391FCB0181709070880F991F880F991F8C
:10715000AB0142705070840F951F880F991F880FE4
:10716000991FAB0144705070840F951F880F991FB1
:10717000880F991F68707070860F971F880F991F6E
:10718000280F391F220F331F2F5F3F4FF801219324
:1071900031938F01CE14DF0409F0AECFF8948091C3
:1071A000040190910501892B09F042C05B9A00000F
:1071B00000005B9880E090E0000001968533910527
:1071C000D9F780E090E000B605FE01C0000000B6EF
:1071D00005FE01C000000196813C9105A1F71FC08A
:1071E00020FF04C05B9A0000000003C05B98000011
:1071F00000005B9880E090E00000019683329105EA
:10720000D9F73695279541505040FFEF4F3F5F0724
:1072100039F72D933D93A617B70721F40EC0BE0191
:10722000635F7F4F2D913C91119748E050E0D8CF9C
:107230005B98789425E030E00EC05B9880E090E0A9
:107240000000019682339105D9F780B7806180BF35
:10725000789421E030E0C9012C960FB6F894DEBF97
:107260000FBECDBFCF91DF911F910F91FF90EF9097
:10727000DF90CF9008952F923F924F925F927F922E
:107280008F929F92AF92BF92CF92DF92EF92FF9236
:107290000F931F93CF93DF9386E084B98CE08AB974
:1072A0005B9881E085BF82E085BF0E944838299ABB
:1072B0005A9A80ED97E028EC30E0F9013197F1F728
:1072C0000197D9F729985A9880ED97E028EC30E09B
:1072D000F9013197F1F70197D9F7299A5A9A80ED78
:1072E00097E028EC30E0F9013197F1F70197D9F7F1
:1072F00029985A98409000015090010104E0702EA6
:1073000010EA212E1FE0312E80910201909103019D
:10731000892BD1F38091020190910301813691056F
:1073200009F07FC010920301109202017BB8C0E007
:10733000D0E081E090E060E070E041E050E00E9449
:107340005B3880E197E20197F1F72196C436D105C9
:1073500081F75A9880E49CE9E8ECF0E03197F1F786
:107360000197D1F780E49CE9E8ECF0E03197F1F780
:107370000197D1F74DC0F894AA24BB24C0E0D0E017
:10738000C50160E070E04AEF50E00E945B3880ED9C
:1073900097E00197F1F76501B0E88B2E912C8C0EE8
:1073A0009D1EFE01E490FF242196FE01049110E051
:1073B000C701B80140E050E00E945B38E00EF11ECA
:1073C000CE0CDF1C2196C815D90559F780ED97E042
:1073D0000197F1F78D2D90E06C2D70E04EEF50E0AD
:1073E0000E945B3878947BB880E29EE40197F1F7C5
:1073F0005A988091020190910301892B49F4F894E5
:107400000894A11CB11CFCEDAF16B10409F0B8CF73
:107410008091020190910301892B09F4ACCF7894FB
:1074200073CF809102019091030182369105E9F4B6
:107430001092030110920201C0E0D0E07BB882E01C
:1074400090E060E070E041E050E00E945B387894AA
:1074500080E797E10197F1F75A98C1010197F1F799
:107460002196C436D10551F74FCF809102019091FA
:10747000030183369105F9F4109203011092020181
:1074800013C07BB883E090E060E070E041E050E042
:107490000E945B38789480ED97E00197F1F75A9855
:1074A00080ED97E00197F1F780910201909103013F
:1074B000892B39F329CF8091020190910301843601
:1074C0009105E9F41092030110920201C0E0D0E0AE
:1074D0007BB884E090E060E070E041E050E00E9422
:1074E0005B38789480E797E10197F1F75A98C101EA
:1074F0000197F1F72196C436D10551F705CF809158
:1075000002019091030185369105E9F4109203017F
:1075100010920201C0E0D0E07BB885E090E060E02E
:1075200070E041E050E00E945B38789480E797E19A
:107530000197F1F75A98C1010197F1F72196C436E6
:10754000D10551F7E1CE8091020190910301863679
:107550009105E9F41092030110920201C0E0D0E01D
:107560007BB886E090E060E070E041E050E00E948F
:107570005B38789480E29EE40197F1F75A98C10154
:107580000197F1F72196C436D10551F7BDCE809110
:1075900002019091030187369105E9F410920301ED
:1075A00010920201C0E0D0E07BB887E090E060E09C
:1075B00070E041E050E00E945B38789480E29EE405
:1075C0000197F1F75A98C1010197F1F72196C43656
:1075D000D10551F799CE809102019091030189362E
:1075E000910579F41092030110920201452829F4C3
:1075F0007BB8A1E04A2E512C87CE5A9844245524BA
:1076000083CE80910201909103018A369105F9F4AD
:10761000109203011092020113C07BB881E090E048
:1076200060E070E041E050E00E945B38789480E1D7
:1076300097E20197F1F75A9880ED97E00197F1F7FB
:107640008091020190910301892B39F35DCE8091E5
:107650000201909103018A37910509F055CE1092ED
:10766000030110920201C0E0D0E07BB888E090E016
:1076700060E070E041E050E00E945B38789480E286
:107680009EE40197F1F75A98C1010197F1F721960D
:10769000C436D10551F738CE1F920F920FB60F9214
:1076A00011248F939F938091C60090E090930301E3
:1076B00080930201299A9F918F910F900FBE0F9096
:0876C0001F901895F894FFCF0C
:040000030000700089
:00000001FF
