:100000000C9434000C945A000C945A000C945A002E
:100010000C945A000C945A000C940A030C945A0045
:100020000C945A000C945A000C945A000C948C03B3
:100030000C945A000C945A000C94020D0C945A0023
:100040000C945A000C945A000C945A000C945A00C8
:100050000C945A000C945A000C945A000C945C00B6
:100060000C945A000C945A0011241FBECFEFD8E014
:10007000DEBFCDBF14BE88E10FB6F8948093600058
:10008000109260000FBE12E0A0E0B1E0ECE3FBE2F2
:1000900002C005900D92A63BB107D9F713E0A6EB7D
:1000A000B2E001C01D92AA39B107E1F70E945307DF
:1000B0000C949C150C9400001F920F920FB60F9297
:1000C00011242F933F938F939F932091840030911D
:1000D000850015BC8091A4019091A501019711F5AF
:1000E000109285001092840081E0809381008091BD
:1000F0007A008F7D80937A008091C4029091C5022E
:10010000892B29F489E08093890080E804C088E085
:100110008093890080E4809388001092A50110925A
:10012000A40139C084E02A3B3807D4F482E0203AA5
:1001300038075CF42359314024F48091DC02805864
:1001400028C08091DC02805C24C02D5A334024F406
:100150008091DC02805E1DC08091DC02805F19C04E
:1001600086E0243D38075CF4275C354024F4809118
:10017000DC02885F0EC08091DC028C5F0AC0215EC9
:10018000374024F48091DC028E5F03C08091DC0252
:100190008F5F8093DC0281E090E09093B9028093BE
:1001A000B8029F918F913F912F910F900FBE0F90AA
:1001B0001F901895AC0120E030E0FA01E20FF31F28
:1001C00080818093C6008091C00085FFFCCF2F5FA7
:1001D0003F4F2A30310589F78AE08093C60080912D
:1001E000C00085FFFCCF8DE08093C6008091C000E9
:1001F00085FFFCCF0895CF92DF92EF92FF920F938D
:100200001F93DF93CF93CDB7DEB72C970FB6F8943B
:10021000DEBF0FBECDBF282F78948091B802909199
:10022000B902019719F422E030E0ECC029836A8317
:100230004B832058260F240F2C836E010894C11C79
:10024000D11CDE0115968D017D01F60161916F01D2
:1002500070E09B0120723070F3E035952795FA9598
:10026000E1F7CB018071907095958795280F391F24
:10027000CB018074907055E0959587955A95E1F77C
:10028000280F391FCB01880F892F881F990B919553
:10029000280F391FCB0181709070880F991F880F2C
:1002A000991FAB0142705070840F951F880F991FE2
:1002B000880F991FAB0144705070840F951F880FF1
:1002C000991F880F991F68707070860F971F880F8D
:1002D000991F280F391F220F331F2F5F3F4FF8013F
:1002E000219331938F01CE14DF0409F0AECFF8943F
:1002F0008091B8029091B9023091BA02892B09F02D
:1003000062C084B1832B84B985B1832B85B9000089
:10031000000085B1232F2095822385B980E090E0ED
:100320000000019685339105D9F780E090E000B692
:1003300005FE0AC085B1822385B984B1282324B97A
:10034000789423E030E05EC000B605FE0AC085B1B7
:10035000822385B984B1282324B9789424E030E03D
:1003600051C00196813C910511F725C040FF06C0A0
:1003700085B1832B85B90000000005C085B18223BB
:1003800085B90000000085B1822385B980E090E046
:100390000000019683329105D9F756954795615033
:1003A00070408FEF6F3F780709F74D935D93AE175D
:1003B000BF0719F414C0FE013D964D915C91119751
:1003C00068E070E0D3CF85B1932F9095892385B9EC
:1003D00084B1982394B9789425E030E013C085B1B6
:1003E000822385B984B1282324B980E090E00000FD
:1003F000019682339105D9F780B7806180BF7894E8
:1004000021E030E0C9012C960FB6F894DEBF0FBE94
:10041000CDBFCF91DF911F910F91FF90EF90DF90B3
:10042000CF9008958091B8029091B902892B19F06C
:100430002FEF3FEF1AC0F89487E080937C00809103
:100440007A00806480937A0080917A0084FFFCCFE8
:1004500091E090937C0083EB80937A0090937B00F3
:1004600078942091780030917900C90108958091A5
:10047000B8029091B902892B19F06FEF7FEF2CC071
:1004800080917A00F89486E080937C0080917A00D5
:10049000806480937A0080917A0084FFFCCF789406
:1004A000609178007091790080E090E00E94CC111A
:1004B0002AEC34E541EC5BE30E94C00F24E237E90B
:1004C0004FE75CE30E94930F20E030E048EC52E4F9
:1004D0000E94C00F0E947811CB0108951092B702BC
:1004E0001092B602F89484E083BF14BE809160003D
:1004F00088618093600081E68093600014B815B82D
:1005000017B818B81AB81BB8789480917A008F770A
:1005100080937A00A89583B7816083BF889578948B
:1005200034E021E61BC033BF14BE809160008861B7
:10053000809360002093600014B815B817B818B8FD
:100540001AB81BB8789480917A008F7780937A00DC
:10055000A89583B7816083BF889578948091B6020F
:100560009091B702892BF9F2539A239A8091B000A7
:10057000816A8093B0008091B10082608093B10065
:100580001092B4001092B3000895982F40FF02C05B
:100590003D9A01C03D98842F859580FF02C03C9A0A
:1005A00001C03C9890FF02C0559A01C05598892F10
:1005B000859580FF02C0549A01C0549860FF02C024
:1005C0003B9A01C03B98862F859580FF02C03A9ADE
:1005D00008953A9808950F931F93489B03C020E015
:1005E00030E014C081E060E040E00E94C50200E419
:1005F0001CE9C8010197F1F780E060E040E00E944B
:10060000C502C8010197F1F721E030E0C9011F914F
:100610000F9108951F920F920FB60F9211242F93EE
:100620003F934F935F936F937F938F939F93AF937A
:10063000BF93EF93FF93A895529A5A9AEAE7F0E096
:10064000808180688083E0E6F0E08081886180833B
:100650001082789487E067E047E00E94C50280E25C
:100660009EE40197F1F780E060E040E00E94C5025F
:10067000FF91EF91BF91AF919F918F917F916F917A
:100680005F914F913F912F910F900FBE0F901F9050
:100690001895EF92FF920F931F93DF93CF93CDB7EF
:1006A000DEB72A970FB6F894DEBF0FBECDBF8E011E
:1006B0000F5F1F4F78019E01255F3F4FF701119299
:1006C0007F01E217F307D1F7BE016F5F7F4F4AE06A
:1006D00050E00E94F914F80180818093C600809157
:1006E000C00085FFFCCF0F5F1F4F0E151F0599F748
:1006F00080E28093C6008091C00085FFFCCF2A96DF
:100700000FB6F894DEBF0FBECDBFCF91DF911F9122
:100710000F91FF90EF9008951F920F920FB60F92D6
:1007200011243F924F925F926F927F928F929F928D
:10073000AF92BF92CF92DF92EF92FF920F931F93EF
:100740002F933F934F935F936F937F938F939F93D9
:10075000AF93BF93CF93DF93EF93FF9321E030E00C
:100760003093A5012093A4018091C4029091C50209
:10077000892B09F047C0809178009091790090937F
:10078000DB028093DA0210927C0043EB40937A0004
:1007900091E090937B008091DC028093DD023093A6
:1007A000C5022093C4028091DC02882309F442C070
:1007B0001092DD021092DE021092DF021092E0022F
:1007C0001092E10290937C0040937A0090937B001A
:1007D0001092810010928500109284001092C50240
:1007E0001092C4021092B9021092B8028091C6020F
:1007F0009091C70203969093C7028093C60285E04A
:1008000085BD18C08091C4029091C502019709F579
:1008100080917800909179009093D9028093D802CA
:100820008091DC028093DE0282E090E09093C5022A
:100830008093C4028091C8029091C90220917800EF
:1008400030917900820F931F9093C9028093C80260
:1008500006C38091C4029091C502029739F4809139
:10086000DC028093DF0283E090E00CC08091C40240
:100870009091C502039759F48091DC028093E002C5
:1008800084E090E09093C5028093C402E8C2809116
:10089000C4029091C502049709F0E1C28091DC0284
:1008A0008093E1021092C5021092C4028091DE0290
:1008B0009091DF022091E0023091E102890F80588F
:1008C000820F831709F0F0C18091DD02882309F0BF
:1008D000EBC18091D8029091D902845893401CF0CA
:1008E00033243A9499C02091D8023091D902809152
:1008F0007803909179038217930714F433248CC002
:1009000021E0422E512C2091D8023091D902E201EF
:10091000CC0FDD1FC858DC4F88819981821793075F
:1009200054F00894411C511C8EE04816510459F7AC
:100930008AE5382E71C068817981F201EE0FFF1FC0
:10094000EA58FC4F20813181621B730B882777FDA9
:100950008095982F0E941A119B01AC010E94930F61
:100960003B014C01E880F9806091D8027091D90276
:10097000882777FD8095982F0E941A115B016C01E2
:100980000027F7FC0095102FC801B7010E941A112B
:100990007B018C01B201882777FD8095982F0E94FA
:1009A0001A1120E030E040E05FE30E94C00F20E039
:1009B00030E040E050E00E94930F9B01AC01C40185
:1009C000B3010E94C00F9B01AC01C801B7010E9496
:1009D000620F9B01AC01C601B5010E94620F20E0CD
:1009E00030E040E251E40E94C00F0E9478117B0188
:1009F0008C01C401B3010E9478119B01AC01C701B5
:100A0000B9010E943A14882777FD8095982F0E949B
:100A10001A110E94EA0D362E8091D8029091D902C7
:100A20008D5B92400CF4A2C02091DA023091DB027F
:100A300080915C0390915D03821793070CF48BC047
:100A400011E0412E512C2091DA023091DB02E201BB
:100A5000CC0FDD1FC45ADC4F888199818217930720
:100A600044F00894411C511CFEE04F16510459F704
:100A700072C068817981F201EE0FFF1FE65AFC4FC8
:100A800020813181621B730B882777FD8095982F19
:100A90000E941A119B01AC010E94930F3B014C0173
:100AA000E880F9806091DA027091DB02882777FD97
:100AB0008095982F0E941A115B016C010027F7FCAA
:100AC0000095102FC801B7010E941A117B018C01FB
:100AD000B201882777FD8095982F0E941A1120E097
:100AE00030E040E05FE30E94C00F20E030E040E0F3
:100AF00050E00E94930F9B01AC01C401B3010E941E
:100B0000C00F9B01AC01C801B7010E94620F9B019D
:100B1000AC01C601B5010E94620F20E030E040E266
:100B200051E40E94C00F0E9478117B018C01C40126
:100B3000B3010E9478119B01AC01C701B9010E9469
:100B40003A14882777FD8095982F0E941A110E94E9
:100B5000EA0D6F3F59F02FEF321641F08091D80225
:100B60009091D9028091D8029091D9028091E002AF
:100B700080FDB3C000914203109143036091DE02F7
:100B800070E080E090E00E94CC11000F111F000F78
:100B9000111F0E511D4FF80160837183828393836F
:100BA00000914203109143036091DF0270E080E006
:100BB00090E00E94CC11000F111F000F111F0E506A
:100BC0001D4FF801608371838283938300914203F8
:100BD000109143036091E00270E080E090E00E9499
:100BE000CC11000F111F000F111F0E5F1C4FF801D9
:100BF0006083718382839383009142031091430346
:100C00006091DA027091DB02882777FD8095982F3A
:100C10000E941A11000F111F000F111F0E5E1C4FB2
:100C2000F801608371838283938300914203109162
:100C300043036091D8027091D902882777FD80958F
:100C4000982F0E941A11000F111F000F111F0E5D27
:100C50001C4FF8016083718382839383E091420388
:100C6000F0914303EE0FFF1FEE0FFF1FEE5CFC4FF2
:100C700080E090E0A0E8BFE380839183A283B38308
:100C80008091420390914303019690934303809394
:100C9000420380914203909143030497F1F4109230
:100CA00043031092420319C080E091E00E94DA00F1
:100CB0008091DE0290E00E9449038091DF0290E083
:100CC0000E9449038091E00290E00E9449038091D4
:100CD000E10290E00E9449039BC08091E00280FF06
:100CE00097C08091DF02882309F092C08091DE02D4
:100CF000893008F08DC020919E0130919F01809134
:100D0000DE0290E02817390709F482C08091DE02E4
:100D1000833009F468C040E050E01FC0FA01EE0FD4
:100D2000FF1FEC56FC4F208131818091DE0290E064
:100D30002817390781F010929503109294031092AE
:100D400097031092960310929903109298031092B1
:100D5000CB021092CA024F5F5F4F8091CA029091FE
:100D6000CB0248175907D4F28091CA029091CB0266
:100D70000397B4F4E091CA02F091CB028091DE02B5
:100D800090E0EE0FFF1FEC56FC4F91838083809123
:100D9000CA029091CB0201969093CB028093CA0233
:100DA0008091CA029091CB020397E9F48091DE0210
:100DB00090E090939F0180939E0181E090E090935A
:100DC0009D0180939C0110929503109294031092C0
:100DD0009703109296031092990310929803109221
:100DE000CB021092CA028091DE02833089F421E0A6
:100DF00030E03093B7022093B6028091DE0290E09B
:100E000090939F0180939E0130939D0120939C01BC
:100E100091E090937C0083EB80937A0090937B0029
:100E20001092B9021092B8021092DD021092DE0206
:100E30001092DF021092E0021092E1021092810003
:100E400010928500109284008091C6029091C70292
:100E50000C969093C7028093C60285E085BD1092E0
:100E6000DC02FF91EF91DF91CF91BF91AF919F9104
:100E70008F917F916F915F914F913F912F911F9132
:100E80000F91FF90EF90DF90CF90BF90AF909F9029
:100E90008F907F906F905F904F903F900F900FBE1C
:100EA0000F901F9018952F923F924F925F926F92E2
:100EB0007F928F929F92AF92BF92CF92DF92EF92EA
:100EC000FF920F931F93CF93DF931092950310928D
:100ED0009403109297031092960310929903109224
:100EE000980380E090E0A0E0B0E08093320390931C
:100EF0003303A0933403B093350380933603909368
:100F00003703A0933803B093390380933A03909347
:100F10003B03A0933C03B0933D0380933E03909327
:100F20003F03A0934003B093410314B815B817B81A
:100F300018B81AB81BB8529A5A9A81E090E00E94E9
:100F40001A1580936600519A81E090E09093C50055
:100F50008093C4001092C0008091C100886080938B
:100F6000C1008091C20086608093C2008CE091E055
:100F70000E94DA00539A239A8091B000816A80938C
:100F8000B0008091B10082608093B1001092B400F3
:100F90001092B30080B78B6080BF83E080937F00A6
:100FA00010927C0083EC80937A001092800081E0A4
:100FB0008093810092E090936F0082E38093890098
:100FC0001092880014BC85E085BD90936E008FEF71
:100FD00087BDCC24DD24C0E2D0E0CE010E941A15EA
:100FE00090E08601000F111F045A1C4FF8019183F5
:100FF000808380819181982F882791838083E080EE
:10100000F180CE0101960E941A15E80EF11CF8013C
:10101000F182E0820894C11CD11C2296FEE0CF161A
:10102000D104D9F6CC24DD24C0E5D0E0CE010E9465
:101030001A1590E08601000F111F08581C4FF80187
:101040009183808380819181982F882791838083E9
:10105000E080F180CE0101960E941A15E80EF11C85
:10106000F801F182E0820894C11CD11C2296FEE0B6
:10107000CF16D104D9F680E990E00E941A1580932A
:10108000BA0287E191E00E94DA008CE291E00E94CE
:10109000DA0087E191E00E94DA0081E491E00E94A9
:1010A000DA00C0E0D0E0FE01EE0FFF1FE45AFC4F73
:1010B000808191810E9449032196CE30D10599F714
:1010C00087E191E00E94DA0084E591E00E94DA0075
:1010D000C0E0D0E0FE01EE0FFF1FE858FC4F80811A
:1010E00091810E9449032196CE30D10599F787E17D
:1010F00091E00E94DA0088E691E00E94DA00809197
:10110000BA0290E00E94490384E791E00E94DA006D
:1011100081E891E00E94DA008091660090E00E94F0
:10112000490384E791E00E94DA008DE891E00E9493
:10113000DA0084E791E00E94DA0081E060E040E0BC
:101140000E94C50288EB9BE028EC30E0F901319762
:10115000F1F70197D9F780E061E040E00E94C50215
:1011600088EB9BE028EC30E0F9013197F1F701972B
:10117000D9F780E060E041E00E94C50288EB9BE087
:1011800028EC30E0F9013197F1F70197D9F780E0C9
:1011900060E040E00E94C50210929B01789480E0DC
:1011A00090E0A0E0B0E08093320390933303A093EB
:1011B0003403B09335038093360390933703A093A1
:1011C0003803B093390380933A0390933B03A09381
:1011D0003C03B0933D0380933E0390933F03A09361
:1011E0004003B093410381E090E090939D01809390
:1011F0009C0186E090E090939F0180939E01FF24E4
:10120000F39428ECC22ED12C0F2EF0E02F2EF0E01C
:101210003F2EF0E04F2EF0E05F2EF02D90EAE92E09
:1012200080E4882E8CE9982E01E0602E712C10E667
:10123000A12E1AEEB12E80919C0190919D010197F3
:1012400009F0C9C01092BB02789410929D011092CF
:101250009C0180919E0190919F01019751F4109201
:10126000B4001092B3005C9810929B0115BC0C94D2
:10127000003880919E0190919F01029741F4109255
:101280009B011092B7021092B6020E946E028091EA
:101290009E0190919F01039731F080919E01909162
:1012A0009F01049751F580E060E040E00E94C50294
:1012B0001092B4001092B3005C9810929B0115C07C
:1012C00087E067E040E00E94C50280E29EE401976B
:1012D000F1F780E060E040E00E94C50280E197E223
:1012E000F6013197F1F70197D9F780919C01909120
:1012F0009D01892B29F3F0929B0180919E01909191
:101300009F01059781F51092B4001092B3005C988C
:1013100015BC10929B011DC00E943702815991405B
:1013200014F080E00FC00E9437028758914024F0EB
:1013300080E060E047E00BC00E9437028F5591408B
:101340001CF087E067E002C087E060E040E00E94B8
:10135000C50280919C0190919D01892BE9F2F09248
:101360009B0125E025BD80919E0190919F010697EC
:1013700021F4F0929B01F092BB0280919E0190912A
:101380009F010797A9F41092B4001092B3005C98E3
:1013900015BC10929B0102C00E94EB0280919C013F
:1013A00090919D01892BC1F3F0929B0185E085BD51
:1013B00080919E0190919F01089769F4F89428E02C
:1013C00088E190E00FB6F894A895809360000FBE76
:1013D00020936000FFCF8091BB02813009F02BCFBA
:1013E0008091BC029091BD02892B49F41092B30008
:1013F00095E49093B4007092BD026092BC02C091DB
:101400004203D091430320925803309259034092F3
:101410005A0350925B0300E010E0209719F4C3E0F8
:10142000D0E001C02197FE01EE0FFF1FEE0FFF1F5E
:10143000EE5CFC4F608171818281938120E030E01D
:1014400040E85FE30E94BA10882309F074C0F89462
:10145000FE01EE0FFF1FEE0FFF1FEE51FD4F8081CB
:101460009181A281B3818093440390934503A0931B
:101470004603B0934703FE01EE0FFF1FEE0FFF1F61
:10148000EE50FD4F80819181A281B381809348030A
:1014900090934903A0934A03B0934B03FE01EE0FD0
:1014A000FF1FEE0FFF1FEE5FFC4F80819181A28135
:1014B000B38180934C0390934D03A0934E03B0935C
:1014C0004F03FE01EE0FFF1FEE0FFF1FEE5EFC4FFE
:1014D00080819181A281B3818093500390935103C5
:1014E000A0935203B0935303CC0FDD1FCC0FDD1F2D
:1014F000FE01EE5DFC4F80819181A281B3818093DA
:10150000540390935503A0935603B09357037894D4
:1015100080E090E0A0E8BFE38093580390935903E4
:10152000A0935A03B0935B03CE5CDC4F28823982D0
:101530004A825B8206C00F5F1F4F0430110509F01D
:101540006CCF609158037091590380915A03909128
:101550005B0320E030E040E85FE30E94BA1088239C
:1015600009F069CE8091BE029091BF02892B09F0EB
:1015700072C060914403709145038091460390913D
:10158000470320E030E040E85FE30E94BA10882380
:1015900009F05DC0609148037091490380914A034E
:1015A00090914B0320E030E040E85FE30E94BA10E6
:1015B0008823F1F481E060E040E00E94C502809160
:1015C000A2019091A30101969093A3018093A2019F
:1015D0001092B300E092B400F5013197F1F7109248
:1015E000B3008093B40080E060E040E00E94C50258
:1015F000609148037091490380914A0390914B0395
:1016000020E030E040E050E40E94BA10882319F551
:1016100081E060E040E00E94C5028091A2019091CB
:10162000A30101979093A3018093A2011092B300AC
:10163000E092B400F5013197F1F71092B300809376
:10164000B40080E060E040E00E94C50204C07092F7
:10165000BF026092BE028091BE029091BF020197CC
:1016600009F086C060914403709145038091460360
:101670009091470320E030E040E050E40E94BA102F
:10168000882309F05DC060914803709149038091FF
:101690004A0390914B0320E030E040E050E40E9488
:1016A000BA108823F1F480E061E040E00E94C502B6
:1016B0008091A0019091A10101969093A101809346
:1016C000A001E092B3001092B400F5013197F1F758
:1016D0008093B3001092B40080E060E040E00E948C
:1016E000C502609148037091490380914A0390912B
:1016F0004B0320E030E040E85FE30E94BA1088230B
:10170000B9F580E061E040E00E94C5028091A0014F
:101710009091A10101979093A1018093A001E09283
:10172000B3001092B400F5013197F1F78093B30044
:101730001092B40080E060E040E00E94C50218C052
:10174000E2E0F0E0F093BF02E093BE028091A201DC
:101750009091A30107979093C3028093C202809156
:10176000A0019091A10107979093C1028093C002BC
:101770008091BE029091BF02029709F05CCD60910A
:10178000440370914503809146039091470320E004
:1017900030E040E450E40E94BA10882309F04EC0C3
:1017A000F89487E067E047E00E94C50284E090E09B
:1017B0006091A2010E94221588EE93E0F601319714
:1017C000F1F70197D9F788E090E06091A0010E94BD
:1017D000221588EE93E0F6013197F1F70197D9F7DA
:1017E0008BE090E06091C2020E94221588EE93E0A7
:1017F000F6013197F1F70197D9F783E190E0609115
:10180000C0020E94221588EE93E0F6013197F1F7AD
:101810000197D9F780E060E040E00E94C50278942B
:101820001092B3001092B40082E090E090939F0178
:1018300080939E0170929D0160929C01609144038F
:1018400070914503809146039091470320E030E07A
:1018500040E050E40E94BA10882309F060C0609113
:1018600048037091490380914A0390914B0320E013
:1018700030E040E050E40E94BA10882301F581E096
:1018800060E040E00E94C5028091C0029091C102D8
:1018900001969093C1028093C002E092B300E0925F
:1018A000B400F4013197F1F78093B3008091C20244
:1018B0008093B40080E060E040E00E94C502609147
:1018C00048037091490380914A0390914B0320E0B3
:1018D00030E040E85FE30E94BA10882301F581E020
:1018E00060E040E00E94C5028091C0029091C10278
:1018F00001979093C1028093C002E092B300E092FE
:10190000B400F4013197F1F78093B3008091C202E3
:101910008093B40080E060E040E00E94C5026091E6
:10192000440370914503809146039091470320E062
:1019300030E040E85FE30E94BA10882309F07BCCD6
:10194000609148037091490380914A0390914B0341
:1019500020E030E040E85FE30E94BA10882301F500
:1019600080E061E040E00E94C5028091C202909157
:10197000C30201969093C3028093C202E092B30027
:10198000E092B400F4013197F1F72091C002209366
:10199000B3008093B40080E060E040E00E94C502A4
:1019A000609148037091490380914A0390914B03E1
:1019B00020E030E040E050E40E94BA10882309F0B3
:1019C0003ACC80E061E040E00E94C5028091C20212
:1019D0009091C30201979093C3028093C202E09258
:1019E000B300E092B400F4013197F1F72091C00206
:1019F0002093B3008093B40080E060E040E00E9458
:101A0000C50219CC1F920F920FB60F921124EF92BC
:101A1000FF920F931F932F933F934F935F936F9377
:101A20007F938F939F93AF93BF93EF93FF932091F7
:101A3000CC023091CD028091C6029091C702820FF4
:101A4000931F9093CD028093CC022091C6023091D7
:101A5000C7028091D6029091D702820F931F909374
:101A6000D7028093D6022091CE023091CF0280918E
:101A7000C6029091C702820F931F9093CF0280936A
:101A8000CE02E090D002F090D1020091D2021091EB
:101A9000D3026091C6027091C702882777FD8095B6
:101AA000982F0E941A119B01AC01C801B7010E9436
:101AB000930F6093D0027093D1028093D2029093DF
:101AC000D3022091D4023091D5028091C602909128
:101AD000C70264E670E00E943A14260F371F309365
:101AE000D5022093D4028091D4029091D5028150E6
:101AF0009D4720F01092D5021092D4028FEF90E013
:101B00009093C7028093C6028FEF87BD8091CC026D
:101B10009091CD02895E93406CF180919B01813060
:101B200049F58091B8029091B902892BA1F4809176
:101B3000A6016091A7014091A80190E070E050E0FB
:101B40000E94FB00009739F0019729F41092CD0212
:101B50001092CC020FC00E94E9146FEF70E00E9457
:101B60003A149093C7028093C6028091C602909166
:101B7000C70287BD8091D6029091D702885F9840B6
:101B8000A4F01092D7021092D602109295031092F0
:101B90009403109297031092960310929903109257
:101BA00098031092CB021092CA02FF91EF91BF915D
:101BB000AF919F918F917F916F915F914F913F91E5
:101BC0002F911F910F91FF90EF900F900FBE0F90EC
:101BD0001F901895EF92FF920F931F937B018C013A
:101BE00020E030E040E05FE40E94EA1088238CF0BF
:101BF000C801B70120E030E040E05FE40E94620FDE
:101C00000E9478119B01AC01205030404040504868
:101C100006C0C801B7010E9478119B01AC01B9014F
:101C2000CA011F910F91FF90EF900895A0E0B0E0DE
:101C3000ECE1FEE00C946114DC012B01FA019C91B3
:101C4000923008F439C1EB018881823008F433C145
:101C5000943069F4843009F02FC111969C9111974A
:101C60008981981709F428C1A9EAB1E025C1843017
:101C700009F421C18230A9F4923009F01DC19A0102
:101C8000AD0188E0EA010990AE01E90109929E01E7
:101C90008150C1F7E201898111969C91892381834A
:101CA00008C1923009F407C112962D903C90139709
:101CB000EB018A819B811496AD90BD90CD90DC9014
:101CC0001797EC80FD800E811F819101281B390B35
:101CD000B90137FF04C066277727621B730B603298
:101CE00071050CF061C0121613066CF5370148013E
:101CF000062E04C096948794779467940A94D2F73A
:101D000021E030E040E050E004C0220F331F441FC8
:101D1000551F6A95D2F721503040404050402E2147
:101D20003F2140235123211531054105510521F063
:101D300021E030E040E050E079018A01E628F72810
:101D4000082919293CC0232BD1F1260E371E350155
:101D50004601062E04C096948794779467940A945B
:101D6000D2F721E030E040E050E004C0220F331F02
:101D7000441F551F6A95D2F72150304040405040D3
:101D80002A213B214C215D212115310541055105B9
:101D900021F021E030E040E050E059016A01A6283E
:101DA000B728C828D9280BC0821593052CF01C0130
:101DB000AA24BB24650103C0EE24FF2487011196E9
:101DC0009C91D20111968C91981709F445C09923E2
:101DD00039F0A80197012A193B094C095D0906C091
:101DE000A60195012E193F09400B510B57FD08C064
:101DF00011823382228224833583468357831DC018
:101E000081E081833382228288279927DC01821B2B
:101E1000930BA40BB50B84839583A683B7830DC066
:101E2000220F331F441F551F248335834683578356
:101E300082819381019793838283248135814681B6
:101E40005781DA01C9010197A109B1098F5F9F4F3D
:101E5000AF4FBF4328F30BC0918333822282EA0C39
:101E6000FB1C0C1D1D1DE482F5820683178383E095
:101E70008083248135814681578157FF1AC0C9016B
:101E8000AA2797FDA095BA2F81709070A070B070AE
:101E90005695479537952795822B932BA42BB52BD9
:101EA00084839583A683B7838281938101969383EC
:101EB0008283DF0101C0D201CD01CDB7DEB7E2E1FF
:101EC0000C947D14A0E2B0E0E8E6FFE00C946D1401
:101ED00069837A838B839C832D833E834F835887CA
:101EE000E9E0EE2EF12CEC0EFD1ECE010196B701BD
:101EF0000E9469138E010F5E1F4FCE010596B80137
:101F00000E9469138A8991E089278A8BC701B801E9
:101F1000AE01475E5F4F0E94160E0E949412A0967B
:101F2000E6E00C948914A0E2B0E0E9E9FFE00C944B
:101F30006D1469837A838B839C832D833E834F83C7
:101F40005887F9E0EF2EF12CEC0EFD1ECE01019624
:101F5000B7010E9469138E010F5E1F4FCE010596D7
:101F6000B8010E946913C701B801AE01475E5F4F17
:101F70000E94160E0E949412A096E6E00C9489141A
:101F8000A0E2B0E0E6ECFFE00C94611469837A8390
:101F90008B839C832D833E834F835887CE0101968C
:101FA000BE01675F7F4F0E946913CE010596BE0197
:101FB0006F5E7F4F0E9469139985923088F08989FE
:101FC0008230C8F0943019F4823051F404C0843067
:101FD00029F4923081F489EA91E0C6C0923049F444
:101FE00020E09A858A89981321E02A87CE010996F4
:101FF000BBC0823049F420E09A858A89981321E099
:102000002A8BCE014196B0C02D843E844F845888DF
:102010006D887E888F88988CEE24FF248701AA24FF
:10202000BB24650140E050E060E070E0E0E0F0E0FB
:10203000C10181709070892BE9F0E60CF71C081D36
:10204000191D9A01AB012A0D3B1D4C1D5D1D80E041
:1020500090E0A0E0B0E0E614F7040805190520F4CC
:1020600081E090E0A0E0B0E0BA01A901480F591F5B
:102070006A1F7B1FAA0CBB1CCC1CDD1C97FE08C072
:1020800081E090E0A0E0B0E0A82AB92ACA2ADB2AC1
:102090003196E032F10549F0660C771C881C991CDA
:1020A0005694479437942794C3CFFA85EA892B89AD
:1020B0003C898B859C85280F391F2E5F3F4F17C0A9
:1020C000CA0181709070892B61F016950795F7947D
:1020D000E79480E090E0A0E0B0E8E82AF92A0A2B33
:1020E0001B2B76956795579547952F5F3F4F77FD4B
:1020F000E7CF0CC0440F551F661F771F17FD4160C7
:10210000EE0CFF1C001F111F21503040403090E0AA
:10211000590790E0690790E4790760F32B8F3C8FB3
:10212000DB01CA018F779070A070B0708034910588
:10213000A105B10561F447FD0AC0E114F1040105F0
:10214000110529F0405C5F4F6F4F7F4F40781A8E2A
:10215000FE1711F081E08A8F4D8F5E8F6F8F78A30D
:1021600083E0898FCE0149960E949412A096E2E105
:102170000C947D14A8E1B0E0E0ECF0E10C946D1457
:1021800069837A838B839C832D833E834F83588717
:1021900089E0E82EF12CEC0EFD1ECE010196B70170
:1021A0000E9469138E010F5E1F4FCE010596B80184
:1021B0000E9469138985823040F08989823028F035
:1021C000C701B8010E94E11301C081E06896E6E012
:1021D0000C948914A8E1B0E0E0EFF0E10C946D14E8
:1021E00069837A838B839C832D833E834F835887B7
:1021F00089E0E82EF12CEC0EFD1ECE010196B70110
:102200000E9469138E010F5E1F4FCE010596B80123
:102210000E9469138985823040F08989823028F0D4
:10222000C701B8010E94E11301C08FEF6896E6E094
:102230000C948914A8E0B0E0E0E2F1E10C946A1497
:102240009B01AC0183E08983DA01C9018827B7FDCE
:1022500083959927AA27BB27B82E2115310541055B
:10226000510519F482E089833AC08823A9F020300F
:1022700080E0380780E0480780E8580729F460E0EC
:1022800070E080E09FEC30C0EE24FF248701E21A6A
:10229000F30A040B150B02C079018A018EE1C82EE6
:1022A000D12CDC82CB82ED82FE820F831887C8019D
:1022B000B7010E94451201971816190684F4082EDA
:1022C00004C0EE0CFF1C001F111F0A94D2F7ED8210
:1022D000FE820F831887C81AD90ADC82CB82BA82A1
:1022E000CE0101960E9494122896E9E00C9486147F
:1022F000ACE0B0E0EEE7F1E10C94711469837A830D
:102300008B839C83CE010196BE016B5F7F4F0E9441
:1023100069138D81823061F1823050F1843021F473
:102320008E81882351F12EC02F81388537FD20C042
:102330006E812F3131051CF06623F9F023C08EE148
:1023400090E0821B930B29853A854B855C8504C000
:1023500056954795379527958A95D2F76623B1F01C
:1023600050954095309521953F4F4F4F5F4F0EC090
:1023700020E030E040E050E009C02FEF3FEF4FEFAA
:102380005FE704C020E030E040E050E8B901CA0156
:102390002C96E2E00C948D14A8E0B0E0E2EDF1E1BF
:1023A0000C9469147B018C016115710581059105FF
:1023B00019F482E0898360C083E089838EE1C82EAE
:1023C000D12CDC82CB82ED82FE820F831887C8017C
:1023D000B7010E944512FC013197F7FF3BC022274D
:1023E00033272E1B3F0B57016801022E04C0D694E1
:1023F000C794B794A7940A94D2F740E050E060E005
:1024000070E081E090E0A0E0B0E004C0880F991F88
:10241000AA1FBB1F2A95D2F70197A109B1098E21E6
:102420009F21A023B1230097A105B10521F041E030
:1024300050E060E070E04A295B296C297D294D83DA
:102440005E836F8378878EE190E08E1B9F0B9C8369
:102450008B8312C0309781F00E2E04C0EE0CFF1C4F
:10246000001F111F0A94D2F7ED82FE820F83188796
:10247000CE1ADF0ADC82CB821A82CE0101960E943C
:1024800094122896EAE00C948514EF92FF920F9331
:102490001F937B018C0180E0E81680E0F80681E064
:1024A000080780E0180788F48FEFE816F1040105AB
:1024B000110531F028F088E090E0A0E0B0E017C00E
:1024C00080E090E0A0E0B0E012C080E0E81680E09C
:1024D000F80680E0080781E0180728F088E190E01E
:1024E000A0E0B0E004C080E190E0A0E0B0E020E235
:1024F00030E040E050E0281B390B4A0B5B0B04C076
:1025000016950795F794E7948A95D2F7F701EF545B
:10251000FE4F8081281B310941095109C9011F91D2
:102520000F91FF90EF900895DF92EF92FF920F933B
:102530001F93FC01E480F58006811781D1808081A2
:10254000823048F480E090E0A0E1B0E0E82AF92A87
:102550000A2B1B2BA5C0843009F49FC0823021F4C4
:10256000EE24FF24870105C0E114F10401051105E3
:1025700019F4E0E0F0E096C0628173819FEF623869
:1025800079070CF05BC022E83FEF261B370B2A319E
:1025900031052CF020E030E040E050E02AC0B801E6
:1025A000A701022E04C076956795579547950A9422
:1025B000D2F781E090E0A0E0B0E004C0880F991F5E
:1025C000AA1FBB1F2A95D2F70197A109B1098E2135
:1025D0009F21A023B1230097A105B10521F081E03F
:1025E00090E0A0E0B0E09A01AB01282B392B4A2BF8
:1025F0005B2BDA01C9018F779070A070B0708034C6
:102600009105A105B10539F427FF09C0205C3F4FB2
:102610004F4F5F4F04C0215C3F4F4F4F5F4FE0E093
:10262000F0E02030A0E03A07A0E04A07A0E45A0713
:1026300010F0E1E0F0E079018A0127C0603871050F
:1026400064F5FB01E158FF4FD801C7018F77907007
:10265000A070B07080349105A105B10539F4E7FE92
:102660000DC080E490E0A0E0B0E004C08FE390E013
:10267000A0E0B0E0E80EF91E0A1F1B1F17FF05C0FF
:1026800016950795F794E794319687E01695079588
:10269000F794E7948A95D1F705C0EE24FF248701CB
:1026A000EFEFF0E06E2F679566276795902F9F7785
:1026B000D794DD24D7948E2F8695492F462B582FFB
:1026C0005D29B701CA011F910F91FF90EF90DF9034
:1026D0000895FC01DB01408151812281622F6F77D7
:1026E00070E0221F2227221F9381892F880F822BBF
:1026F000282F30E0991F9927991F11969C931197C5
:1027000021153105A9F5411551056105710511F432
:1027100082E037C082E89FEF13969C938E931297C6
:102720009A01AB0167E0220F331F441F551F6A95C2
:10273000D1F783E08C930DC0220F331F441F551F28
:1027400012968D919C911397019713969C938E935B
:102750001297203080E0380780E0480780E458076F
:1027600058F314962D933D934D935C9317970895CA
:102770002F3F310579F4411551056105710519F4B3
:1027800084E08C93089564FF03C081E08C9312C0B1
:102790001C9210C02F57304013963C932E931297E3
:1027A00083E08C9387E0440F551F661F771F8A953F
:1027B000D1F7706414964D935D936D937C93179746
:1027C00008951F93DC01FB019C91923008F447C0EF
:1027D0008081823008F443C0943051F411961C91EA
:1027E000843099F58181682F70E0611B71093FC0C9
:1027F000843021F0923031F48230B9F18181882324
:1028000089F12DC011961C9111978230F1F08181D0
:102810001817D9F412962D913C91139782819381C8
:102820008217930794F028173907BCF014968D91FE
:102830009D910D90BC91A02D2481358146815781B9
:10284000281739074A075B0718F4112341F00AC01B
:1028500082179307A407B50740F4112319F061E02C
:1028600070E005C06FEF7FEF02C060E070E0CB0169
:102870001F91089597FB092E07260AD077FD04D0F3
:102880000CD006D000201AF4709561957F4F089502
:10289000F6F7909581959F4F0895AA1BBB1B51E1B8
:1028A00007C0AA1FBB1FA617B70710F0A61BB70BC0
:1028B000881F991F5A95A9F780959095BC01CD0165
:1028C00008952F923F924F925F926F927F928F92D4
:1028D0009F92AF92BF92CF92DF92EF92FF920F93AF
:1028E0001F93CF93DF93CDB7DEB7CA1BDB0B0FB6B9
:1028F000F894DEBF0FBECDBF09942A883988488876
:102900005F846E847D848C849B84AA84B984C8840B
:10291000DF80EE80FD800C811B81AA81B981CE0F02
:10292000D11D0FB6F894DEBF0FBECDBFED010895E7
:10293000A0E0B0E0EEE9F4E10C946914EC01A880A9
:10294000B980CA80DB80A114B104C104D10441F470
:1029500084E2A82E89EDB82E8BE5C82E87E0D82E0C
:10296000C601B5012DE133EF41E050E00E945F1553
:1029700027EA31E440E050E00E9440157B018C01E1
:10298000C601B5012DE133EF41E050E00E945F1533
:10299000CA01B9012CEE34EF4FEF5FEF0E944015F2
:1029A0006E0D7F1D801F911F97FF04C06150704006
:1029B00080409048688379838A839B839B013F771B
:1029C000C901CDB7DEB7EAE00C9485140E949814D3
:1029D000089581EB92E00E9498140895A0E0B0E081
:1029E0008093B1029093B202A093B302B093B40269
:1029F0000895FB019F01E8944230C4F04532B4F4DD
:102A00004A3029F497FB1EF4909581959F4F642FCF
:102A100077270E944D14805D8A330CF0895D819385
:102A2000CB010097A1F716F45DE251931082C90122
:102A30000C943015F999FECF92BD81BDF89A992773
:102A400080B50895262FF999FECF1FBA92BD81BD9A
:102A500020BD0FB6F894FA9AF99A0FBE0196089520
:102A6000DC01FC01672F71917723E1F7329704C0F5
:102A70007C916D9370836291AE17BF07C8F3089580
:102A8000629FD001739FF001829FE00DF11D649F52
:102A9000E00DF11D929FF00D839FF00D749FF00DDE
:102AA000659FF00D9927729FB00DE11DF91F639F7F
:102AB000B00DE11DF91FBD01CF011124089597FB51
:102AC000092E05260ED057FD04D014D00AD0001CC4
:102AD00038F450954095309521953F4F4F4F5F4FBB
:102AE0000895F6F790958095709561957F4F8F4F7B
:102AF0009F4F0895A1E21A2EAA1BBB1BFD010DC01A
:102B0000AA1FBB1FEE1FFF1FA217B307E407F5079D
:102B100020F0A21BB30BE40BF50B661F771F881F79
:102B2000991F1A9469F760957095809590959B010F
:0C2B3000AC01BD01CF010895F894FFCF67
:102B3C00626164636865636B20202000737461724A
:102B4C007420696E69740020202020202020202011
:102B5C0020202020202020202020200043616C6990
:102B6C0062726174696F6E20646174612020202030
:102B7C00006C6F77206761696E2020202020202058
:102B8C002020200068696768206761696E2020201A
:102B9C00202020202020200074786D61736B202071
:102BAC002020200020202020202020202020202039
:102BBC00004F534343414C20202020200070726F63
:102BCC006772616D207374617274000101000300FF
:102BDC00450045000100C8C8C80000000000000006
:102BEC0000000102020303030304040404040404AC
:102BFC00040505050505050505050505050505057A
:102C0C000506060606060606060606060606060659
:102C1C000606060606060606060606060606060648
:102C2C000607070707070707070707070707070729
:102C3C000707070707070707070707070707070718
:102C4C000707070707070707070707070707070708
:102C5C0007070707070707070707070707070707F8
:102C6C0007080808080808080808080808080808D9
:102C7C0008080808080808080808080808080808C8
:102C8C0008080808080808080808080808080808B8
:102C9C0008080808080808080808080808080808A8
:102CAC000808080808080808080808080808080898
:102CBC000808080808080808080808080808080888
:102CCC000808080808080808080808080808080878
:102CDC000808080808080808080808080808080868
:062CEC00080100000000D9

:107000000C9434380C9451380C9451380C945138F9
:107010000C9451380C9451380C9451380C945138CC
:107020000C9451380C9451380C9451380C945338BA
:107030000C9451380C9451380C9451380C945138AC
:107040000C9451380C9451380C9451380C9451389C
:107050000C9451380C9451380C9451380C9482395A
:107060000C9451380C94513811241FBECFEFD8E046
:10707000DEBFCDBF11E0A0E0B1E0E4E5F9E702C07A
:1070800005900D92A031B107D9F711E0A0E1B1E070
:1070900001C01D92AD35B107E1F70E94973A0C94FB
:1070A000A83C0C9400381F920F920FB60F92112437
:1070B0002F933F934F935F936F937F938F939F9300
:1070C000AF93BF93EF93FF93A1E0B0E0B0930E01B5
:1070D000A0930D013C9A3C98809110019091110170
:1070E000892B99F580915C0190E0909353018093F6
:1070F0005201B0931101A093100180915C0188238B
:1071000009F4EDC0109253011092520110925501F2
:107110001092540110925701109256011092590189
:107120001092580110925B0110925A011092810046
:10713000109285001092840010921101109210019B
:107140001092130110921201CAC080911001909107
:107150001101019751F480915C0190E090935501E9
:107160008093540182E090E00FC0809110019091D3
:107170001101029771F480915C0190E090935701A6
:107180008093560183E090E0909311018093100169
:10719000A6C08091100190911101039751F4809144
:1071A0005C0190E0909359018093580184E090E055
:1071B000EBCF8091100190911101049709F08FC0DD
:1071C00080915C0190E090935B0180935A01109252
:1071D000110110921001809154019091550120915C
:1071E00056013091570140915801509159016091D9
:1071F0005A0170915B01820F8058840F90E08617CE
:10720000970709F04EC08091520190915301892B4C
:1072100009F047C0E0915001F09151018091540173
:1072200090915501EE0FFF1FEC5EFE4F918380831E
:10723000E0915001F09151018091560190915701D8
:10724000EE0FFF1FE25EFE4F91838083E0915001BD
:10725000F09151018091580190915901EE0FFF1F5B
:10726000E85DFE4F91838083E0915001F0915101E0
:10727000EE0FFF1FEA5BFE4FB183A08380915001A8
:10728000909151010196909351018093500180910A
:10729000500190915101049721F4109251011092E4
:1072A000500110921301109212011092530110928A
:1072B00052011092550110925401109257011092F0
:1072C0005601109259011092580110925B011092D0
:1072D0005A01109281001092850010928400109241
:1072E0005C01FF91EF91BF91AF919F918F917F9141
:1072F0006F915F914F913F912F910F900FBE0F9023
:107300001F9018951F920F920FB60F9211242F9372
:107310003F938F939F9320918400309185008091BB
:107320000D0190910E01019711F5109285001092B8
:10733000840081E08093810080917A008F7D80932A
:107340007A008091100190911101892B29F48BE032
:107350008093890080E304C088E08093890080EAFC
:107360008093880010920E0110920D0139C084E0C4
:107370002A3B3807D4F482E0203A38075CF42359DA
:10738000314024F480915C01805828C080915C01D8
:10739000805C24C02D5A334024F480915C01805ECF
:1073A0001DC080915C01805F19C086E0243D3807D4
:1073B0005CF4275C354024F480915C01885F0EC04A
:1073C00080915C018C5F0AC0215E374024F480917B
:1073D0005C018E5F03C080915C018F5F80935C01D4
:1073E00081E090E090931301809312019F918F911F
:1073F0003F912F910F900FBE0F901F901895809383
:10740000C6008091C00085FFFCCF0895982F40FFF3
:1074100002C03D9A01C03D98842F859580FF02C02F
:107420003C9A01C03C9890FF02C0559A01C0559803
:10743000892F859580FF02C0549A01C0549860FF3F
:1074400002C03B9A01C03B98862F859580FF02C001
:107450003A9A08953A980895AC0120E030E0FA0194
:10746000E20FF31F80818093C6008091C00085FFEA
:10747000FCCF2F5F3F4F2A30310589F78AE0809398
:10748000C6008091C00085FFFCCF8DE08093C600D0
:107490008091C00085FFFCCF0895EF92FF920F937B
:1074A0001F93DF93CF93CDB7DEB72A970FB6F8942B
:1074B000DEBF0FBECDBF8E010F5F1F4F78019E0153
:1074C000255F3F4FF70111927F01E217F307D1F7D4
:1074D000BE016F5F7F4F4AE050E00E945B3CF801C5
:1074E00080818093C6008091C00085FFFCCF0F5F34
:1074F0001F4F0E151F0599F78AE08093C6008091F3
:10750000C00085FFFCCF8DE08093C6008091C00055
:1075100085FFFCCF2A960FB6F894DEBF0FBECDBF15
:10752000CF91DF911F910F91FF90EF9008952F92CF
:107530003F924F925F926F927F928F929F92AF9203
:10754000BF92CF92DF92EF92FF920F931F93DF9340
:10755000CF93CDB7DEB7CE55D1400FB6F894DEBF8E
:107560000FBECDBF10924701109246011092490103
:107570001092480110924B0110924A0110924D0155
:1075800010924C0110924F0110924E0184E08AB982
:107590008BB914B815B817B818B85C98529A5A9A9B
:1075A00081E090E00E947C3C80936600539A239A8D
:1075B0008091B000816A8093B0008091B1008260B8
:1075C0008093B1001092B4001092B300519A81E000
:1075D00090E09093C5008093C4001092C000809109
:1075E000C10088608093C1008091C2008660809352
:1075F000C20080B78B6080BF83E080937F001092D1
:10760000800021E02093810092E090936F0082E35C
:10761000809389001092880025BF95BFFE01ED5729
:10762000FF4FCE01815A9E4F1192E817F907E1F7FB
:1076300087E060E040E00E94063A80ED97E028ECA9
:1076400030E0F9013197F1F70197D9F780E067E071
:1076500040E00E94063A88EE93E028EC30E0F90121
:107660003197F1F70197D9F780E060E047E00E9499
:10767000063A88EE93E028EC30E0F9013197F1F713
:107680000197D9F780E060E040E00E94063A7894E4
:10769000AA24BB2488243E010894611C711C63E861
:1076A000462E512C4C0E5D1E51E8252E312C2C0EF1
:1076B0003D1EF1C0009150011091510120E030E0D9
:1076C0000430110519F400E010E002C00F5F1F4FF5
:1076D000D801AA0FBB1FAA5BBE4F8D919C91119739
:1076E000019709F07EC0F801EE0FFF1FE85DFE4F25
:1076F000808191818A3F910581F4000F111F0C5EFA
:107700001E4FF80180819181982EA82EBB241196DE
:107710001C921E92EE24FF24CDCF808191818E3F5A
:10772000910521F061E8E616F10494F170E8E7169E
:10773000F104D1F48FEF981601F1F801EE0FFF1F5D
:10774000EC5EFE4F80819181982F8827F801EE0F23
:10775000FF1FE25EFE4F20813181820F931F8A1549
:107760009B0559F481E00AC080E091E00E942C3A28
:1077700087E060E040E00E94063A80E0000F111FC1
:107780000A5B1E4FF80111821082882389F592CF7F
:1077900080819181892B09F08DCF000F111FF80195
:1077A000EC5EFE4F40815181F301EE0DFF1D4083E1
:1077B00097012F5F3F4F025E1E4FF801808191813C
:1077C000F301E20FF31F808390E0840F911DA80E58
:1077D000B91E79010894E11CF11C11961C921E92AD
:1077E00069CF2F5F3F4F2530310509F069CF62CF58
:1077F000FBEDF91508F44CC0092D10E0F201E00F83
:10780000F11F8081882309F043C067E040E00E94B7
:10781000063AD301A8015695542F4427579547950A
:107820009A018C911196DC901197CC24B601680FC7
:10783000711DCB0161E0F9010C0160935700E895DF
:10784000112412962E5F3F4FA215B30551F7F999F7
:10785000FECF63E0FA0160935700E89507B600FC9D
:10786000FDCF65E0FA0160935700E89507B600FC8C
:10787000FDCF040D151D61E0F8016083839471E173
:1078800070935700E89580E060E047E00E94063A78
:107890008CED881629F0EE24FF2499249A940ACFBF
:1078A00081E085BF15BE0C94000080E060E047E0F9
:1078B0000E94063AFFCFFB019F01E8944230C4F0DA
:1078C0004532B4F44A3029F497FB1EF49095819523
:1078D0009F4F642F77270E94943C805D8A330CF081
:1078E000895D8193CB010097A1F716F45DE2519376
:1078F0001082C9010C94843CF999FECF92BD81BDE0
:10790000F89A992780B50895DC01FC01672F7191E1
:107910007723E1F7329704C07C916D937083629175
:10792000AE17BF07C8F30895AA1BBB1B51E107C0E0
:10793000AA1FBB1FA617B70710F0A61BB70B881FFF
:10794000991F5A95A9F780959095BC01CD0108958E
:04795000F894FFCFD9
:10795400706167655F62616464646464000100006F
:040000030000700089
:00000001FF

