:100000000C9434000C945A000C945A000C945A002E
:100010000C945A000C945A000C9432060C945A001A
:100020000C945A000C945A000C945A000C945C00E6
:100030000C945A000C945A000C945A090C945A00CF
:100040000C945A000C945A000C945A000C945A00C8
:100050000C945A000C945A000C945A000C94D2033D
:100060000C945A000C945A0011241FBECFEFD8E014
:10007000DEBFCDBF14BE88E10FB6F8948093600058
:10008000109260000FBE12E0A0E0B1E0ECE3F3E2FA
:1000900002C005900D92A63AB107D9F713E0A6EA7F
:1000A000B2E001C01D92A833B107E1F70E94F80643
:1000B0000C949C110C9400001F920F920FB60F929B
:1000C00011243F924F925F926F927F928F929F92F4
:1000D000AF92BF92CF92DF92EF92FF920F931F9356
:1000E0002F933F934F935F936F937F938F939F9340
:1000F000AF93BF93CF93DF93EF93FF9321E030E073
:1001000030939501209394018091AC029091AD02BF
:10011000892B09F047C080917800909179009093E5
:10012000C1028093C00210927C0043EB40937A009E
:1001300091E090937B008091C2028093C302309340
:10014000AD022093AC028091C202882309F442C020
:100150001092C3021092C4021092C5021092C602FD
:100160001092C70290937C0040937A0090937B009A
:100170001092810010928500109284001092AD02BE
:100180001092AC021092A9021092A8028091AE02C5
:100190009091AF0203969093AF028093AE0285E0F8
:1001A00085BD18C08091AC029091AD02019709F510
:1001B00080917800909179009093BF028093BE0265
:1001C0008091C2028093C40282E090E09093AD02DD
:1001D0008093AC028091B0029091B102209178009E
:1001E00030917900820F931F9093B1028093B002F7
:1001F000B5C28091AC029091AD02029739F4809122
:10020000C2028093C50283E090E00CC08091AC02F2
:100210009091AD02039759F48091C2028093C60277
:1002200084E090E09093AD028093AC0297C28091FD
:10023000AC029091AD02049709F090C28091C20285
:100240008093C7021092AD021092AC028091C4025A
:100250009091C5022091C6023091C702890F805843
:10026000820F831709F053C28091C302882309F0DB
:100270004EC28091BE029091BF02845893401CF000
:1002800033243A9499C02091BE023091BF028091EC
:100290001603909117038217930714F433248CC02C
:1002A00051E0452E512C2091BE023091BF02E20157
:1002B000CC0FDD1FCA5EDC4F8881998182179307BE
:1002C00054F00894411C511C8EE04816510459F713
:1002D0002AE5322E71C068817981F201EE0FFF1F8D
:1002E000EC5EFC4F20813181621B730B882777FD08
:1002F0008095982F0E94280D9B01AC010E94D10B84
:100300003B014C01E880F9806091BE027091BF0210
:10031000882777FD8095982F0E94280D5B016C013E
:100320000027F7FC0095102FC801B7010E94280D87
:100330007B018C01B201882777FD8095982F0E9460
:10034000280D20E030E040E05FE30E94FE0B20E05B
:1003500030E040E050E00E94D10B9B01AC01C401B1
:10036000B3010E94FE0B9B01AC01C801B7010E94C2
:10037000A00B9B01AC01C601B5010E94A00B20E0BF
:1003800030E040E251E40E94FE0B0E94860D7B01AA
:100390008C01C401B3010E94860D9B01AC01C70111
:1003A000B9010E944810882777FD8095982F0E94F8
:1003B000280D0E94280A362E8091BE029091BF021D
:1003C0008D5B92400CF4A2C02091C0023091C1021A
:1003D0008091FA029091FB02821793070CF48BC074
:1003E00081E0482E512C2091C0023091C102E201DF
:1003F000CC0FDD1FC650DD4F88819981821793078E
:1004000044F00894411C511C8EE04816510459F7E1
:1004100072C068817981F201EE0FFF1FE850FD4F35
:1004200020813181621B730B882777FD8095982F7F
:100430000E94280D9B01AC010E94D10B3B014C0195
:10044000E880F9806091C0027091C102882777FD31
:100450008095982F0E94280D5B016C010027F7FC06
:100460000095102FC801B7010E94280D7B018C0157
:10047000B201882777FD8095982F0E94280D20E0F3
:1004800030E040E05FE30E94FE0B20E030E040E01F
:1004900050E00E94D10B9B01AC01C401B3010E944A
:1004A000FE0B9B01AC01C801B7010E94A00B9B0190
:1004B000AC01C601B5010E94A00B20E030E040E293
:1004C00051E40E94FE0B0E94860D7B018C01C40149
:1004D000B3010E94860D9B01AC01C701B9010E94C6
:1004E0004810882777FD8095982F0E94280D0E943C
:1004F000280A6F3F59F02FEF321641F08091BE026B
:100500009091BF028091BE029091BF028091C6027D
:1005100080FD62C0E091F802F091F9028091C4027E
:1005200090E0EE0FFF1FE853FD4F91838083E09131
:10053000F802F091F9028091C50290E0EE0FFF1FE2
:10054000E053FD4F91838083E091F802F091F9022E
:100550008091C60290E0EE0FFF1FE852FD4F91839D
:100560008083E091F802F091F9028091C0029091AD
:10057000C102EE0FFF1FE052FD4F91838083E09197
:10058000F802F091F9028091BE029091BF02EE0F45
:10059000FF1FE851FD4F91838083E091F802F091B5
:1005A000F902EE0FFF1FE051FD4F81E090E09183D3
:1005B00080838091F8029091F90201969093F9025C
:1005C0008093F8028091F8029091F902049721F447
:1005D0001092F9021092F8028091C60280FF97C033
:1005E0008091C502882309F092C08091C4028930AD
:1005F00008F08DC020919201309193018091C40246
:1006000090E02817390709F482C08091C402833032
:1006100009F468C040E050E01FC0FA01EE0FFF1F70
:10062000EE5CFC4F208131818091C40290E028175C
:10063000390781F010923303109232031092350380
:100640001092340310923703109236031092B302C3
:100650001092B2024F5F5F4F8091B2029091B3024D
:1006600048175907D4F28091B2029091B3020397D0
:10067000B4F4E091B202F091B3028091C40290E030
:10068000EE0FFF1FEE5CFC4F918380838091B202DE
:100690009091B30201969093B3028093B20280913D
:1006A000B2029091B3020397E9F48091C40290E002
:1006B000909393018093920181E090E09093910157
:1006C00080939001109233031092320310923503FD
:1006D0001092340310923703109236031092B30233
:1006E0001092B2028091C402833089F421E030E09C
:1006F0003093A7022093A6028091C40290E09093C9
:10070000930180939201309391012093900191E0A5
:1007100090937C0083EB80937A0090937B001092FF
:10072000A9021092A8021092C3021092C402109261
:10073000C5021092C6021092C70210928100109258
:100740008500109284008091AE029091AF020C96C9
:100750009093AF028093AE0285E085BD1092C202F5
:10076000FF91EF91DF91CF91BF91AF919F918F91C9
:100770007F916F915F914F913F912F911F910F91B9
:10078000FF90EF90DF90CF90BF90AF909F908F90B1
:100790007F906F905F904F903F900F900FBE0F90A3
:1007A0001F9018951F920F920FB60F9211242F933E
:1007B0003F938F939F93209184003091850015BCC7
:1007C0008091940190919501019711F51092850007
:1007D0001092840081E08093810080917A008F7D67
:1007E00080937A008091AC029091AD02892B29F41C
:1007F00089E08093890080E804C088E080938900C4
:1008000080E480938800109295011092940139C081
:1008100084E02A3B3807D4F482E0203A38075CF4BD
:100820002359314024F48091C202805828C080911D
:10083000C202805C24C02D5A334024F48091C2024D
:10084000805E1DC08091C202805F19C086E0243D99
:1008500038075CF4275C354024F48091C202885F3D
:100860000EC08091C2028C5F0AC0215E374024F422
:100870008091C2028E5F03C08091C2028F5F80931D
:10088000C20281E090E09093A9028093A8029F9118
:100890008F913F912F910F900FBE0F901F90189541
:1008A000AC0120E030E0FA01E20FF31F8081809379
:1008B000C6008091C00085FFFCCF2F5F3F4F2A30DC
:1008C000310589F78AE08093C6008091C00085FFDA
:1008D000FCCF8DE08093C6008091C00085FFFCCFE7
:1008E0000895CF92DF92EF92FF920F931F93DF93C1
:1008F000CF93CDB7DEB72C970FB6F894DEBF0FBEFF
:10090000CDBF282F78948091A8029091A9020197D9
:1009100019F422E030E0ECC029836A834B8320582D
:10092000260F240F2C836E010894C11CD11CDE01FC
:1009300015968D017D01F60161916F0170E09B01BB
:1009400020723070F3E035952795FA95E1F7CB01E9
:100950008071907095958795280F391FCB01807411
:10096000907055E0959587955A95E1F7280F391FB6
:10097000CB01880F892F881F990B9195280F391F5C
:10098000CB0181709070880F991F880F991FAB0160
:1009900042705070840F951F880F991F880F991F00
:1009A000AB0144705070840F951F880F991F880FFA
:1009B000991F68707070860F971F880F991F280FF6
:1009C000391F220F331F2F5F3F4FF80121933193BF
:1009D0008F01CE14DF0409F0AECFF8948091A80205
:1009E0009091A9023091AA02892B09F062C084B1CA
:1009F000832B84B985B1832B85B90000000085B1B4
:100A0000232F2095822385B980E090E00000019695
:100A100085339105D9F780E090E000B605FE0AC065
:100A200085B1822385B984B1282324B9789423E041
:100A300030E05EC000B605FE0AC085B1822385B9EC
:100A400084B1282324B9789424E030E051C0019681
:100A5000813C910511F725C040FF06C085B1832B6D
:100A600085B90000000005C085B1822385B900006A
:100A7000000085B1822385B980E090E000000196F6
:100A800083329105D9F756954795615070408FEFA5
:100A90006F3F780709F74D935D93AE17BF0719F4C1
:100AA00014C0FE013D964D915C91119768E070E095
:100AB000D3CF85B1932F9095892385B984B198239D
:100AC00094B9789425E030E013C085B1822385B9CC
:100AD00084B1282324B980E090E00000019682339D
:100AE0009105D9F780B7806180BF789421E030E02C
:100AF000C9012C960FB6F894DEBF0FBECDBFCF91C3
:100B0000DF911F910F91FF90EF90DF90CF900895AC
:100B10008091A8029091A902892B19F02FEF3FEF45
:100B20001AC0F89487E080937C0080917A008064FA
:100B300080937A0080917A0084FFFCCF91E09093BB
:100B40007C0082EB80937A0090937B0078942091D4
:100B5000780030917900C901089529B130E02095DD
:100B6000309521703070C90108951092A70210923B
:100B7000A602F89484E083BF14BE8091600088616F
:100B80008093600081E68093600014B815B817B8B0
:100B900018B81AB81BB8789480917A008F77809330
:100BA0007A00A89583B7816083BF8895789434E0F4
:100BB00021E61BC033BF14BE809160008861809322
:100BC00060002093600014B815B817B818B81AB8A8
:100BD0001BB8789480917A008F7780937A00A895DB
:100BE00083B7816083BF889578948091A6029091A5
:100BF000A702892BF9F2539A239A8091B000816A57
:100C00008093B0008091B10082608093B100109217
:100C1000B4001092B3000895982F40FF02C03D9A8F
:100C200001C03D98842F859580FF02C03C9A01C089
:100C30003C9890FF02C0559A01C05598892F859520
:100C400080FF02C0549A01C0549860FF02C03B9AD2
:100C500001C03B98862F859580FF02C03A9A08957F
:100C60003A9808951F920F920FB60F9211242F9366
:100C70003F934F935F936F937F938F939F93AF9324
:100C8000BF93EF93FF93A895529A5A9AEAE7F0E040
:100C9000808180688083E0E6F0E0808188618083E5
:100CA0001082789487E067E047E00E940C0680E2BB
:100CB0009EE40197F1F780E060E040E00E940C06BE
:100CC000FF91EF91BF91AF919F918F917F916F9124
:100CD0005F914F913F912F910F900FBE0F901F90FA
:100CE0001895EF92FF920F931F93DF93CF93CDB799
:100CF000DEB72A970FB6F894DEBF0FBECDBF8E01C8
:100D00000F5F1F4F78019E01255F3F4FF701119242
:100D10007F01E217F307D1F7BE016F5F7F4F4AE013
:100D200050E00E940711F80180818093C6008091F5
:100D3000C00085FFFCCF0F5F1F4F0E151F0599F7F1
:100D40008AE08093C6008091C00085FFFCCF8DE0D3
:100D50008093C6008091C00085FFFCCF2A960FB615
:100D6000F894DEBF0FBECDBFCF91DF911F910F91E1
:100D7000FF90EF9008958091A8029091A902892B8D
:100D800019F06FEF7FEF32C080917A00F89486E01F
:100D900080937C0080917A00806480937A008091B7
:100DA0007A0084FFFCCF789480917800909179004C
:100DB0000E947106609178007091790080E090E067
:100DC0000E94DA0D2AEC34E541EC5BE30E94FE0B55
:100DD00024E237E94FE75CE30E94D10B20E030E0EA
:100DE00048EC52E40E94FE0B0E94860DCB01089550
:100DF000CF92DF92EF92FF920F931F93CF93DF93E7
:100E00001092330310923203109235031092340380
:100E100010923703109236031092F1021092F002F2
:100E20001092F3021092F2021092F5021092F40264
:100E30001092F7021092F60214B815B817B818B845
:100E40001AB81BB8529A5A9A81E090E00E94281171
:100E500080936600519A81E090E09093C500809362
:100E6000C4001092C0008091C10088608093C100CE
:100E70008091C20086608093C20080E091E00E9471
:100E80005004539A239A8091B000816A8093B000F5
:100E90008091B10082608093B1001092B4001092F2
:100EA000B30080B78B6080BF83E080937F00109297
:100EB0007C0083EC80937A001092800081E0809324
:100EC000810092E090936F0082E3809389001092FA
:100ED000880014BC85E085BD90936E008FEF87BDC0
:100EE000CC24DD24C0E2D0E0CE010E94281190E0A5
:100EF0008601000F111F06501D4FF801918380835A
:100F000080819181982F882791838083E080F18070
:100F1000CE0101960E942811E80EF11CF801F18221
:100F2000E0820894C11CD11C2296FEE0CF16D104A9
:100F3000D9F6CC24DD24C0E5D0E0CE010E942811F2
:100F400090E08601000F111F0A5E1C4FF80191838B
:100F5000808380819181982F882791838083E0808E
:100F6000F180CE0101960E942811E80EF11CF801D3
:100F7000F182E0820894C11CD11C2296FEE0CF16BB
:100F8000D104D9F680E990E00E9428118093AA024A
:100F90008BE091E00E94500480E291E00E945004B6
:100FA0008BE091E00E94500485E391E00E945004A0
:100FB000C0E0D0E0FE01EE0FFF1FE650FD4F808144
:100FC00091810E9471062196CE30D10599F78BE070
:100FD00091E00E94500488E491E00E945004C0E037
:100FE000D0E0FE01EE0FFF1FEA5EFC4F8081918191
:100FF0000E9471062196CE30D10599F78BE091E0E1
:101000000E9450048CE591E00E9450048091AA0255
:1010100090E00E94710688E691E00E94500485E706
:1010200091E00E9450048091660090E00E94710659
:1010300088E691E00E94500481E891E00E9450040B
:1010400088E691E00E94500481E060E040E00E9468
:101050000C0688EB9BE028EC30E0F9013197F1F7C2
:101060000197D9F780E061E040E00E940C0688EB30
:101070009BE028EC30E0F9013197F1F70197D9F7BF
:1010800080E060E041E00E940C0688EB9BE028ECE9
:1010900030E0F9013197F1F70197D9F780E060E08E
:1010A00040E00E940C0610928F0178941092F10299
:1010B0001092F0021092F3021092F2021092F502D6
:1010C0001092F4021092F7021092F602B0EACB2EC0
:1010D000BFE0DB2EC8ECD0E0A5E0EA2E00E21EE483
:1010E0008091900190919101019709F0D0C01092E8
:1010F000AB0278941092910110929001809192012C
:1011000090919301019751F41092B4001092B300A2
:101110005C9810928F0115BC0C940038809192015C
:1011200090919301029741F410928F011092A702BF
:101130001092A6020E94B5058091920190919301B0
:10114000039731F08091920190919301049751F5AA
:1011500080E060E040E00E940C061092B400109223
:10116000B3005C9810928F0114C087E067E040E004
:101170000E940C06C8010197F1F780E060E040E0B2
:101180000E940C0680E197E2FE013197F1F701978A
:10119000D9F78091900190919101892B31F381E0F1
:1011A00080938F018091920190919301059781F531
:1011B0001092B4001092B3005C9815BC10928F018D
:1011C0001DC00E94BB068159914014F080E00FC001
:1011D0000E94BB068758914024F080E060E047E021
:1011E0000BC00E94BB068F5591401CF087E067E062
:1011F00002C087E060E040E00E940C068091900110
:1012000090919101892BE9F281E080938F01E5BCF7
:101210008091920190919301069729F481E0809347
:101220008F018093AB028091920190919301079777
:10123000D9F41092B4001092B3005C9815BC1092CF
:101240008F0108C0489906C025C0FE013197F1F70B
:101250000197D9F78091900190919101892B91F399
:1012600081E080938F01E5BC809192019091930180
:10127000089769F4F89428E088E190E00FB6F894B4
:10128000A895809360000FBE20936000FFCF8091EF
:10129000AB0226CF81E060E040E00E940C06C60170
:1012A0000197F1F780E060E040E00E940C0680EDDD
:1012B00097E0CBCF1F920F920FB60F9211242F936E
:1012C0003F934F935F936F937F938F939F93AF93CE
:1012D000BF93EF93FF932091B4023091B5028091B8
:1012E000AE029091AF02820F931F9093B50280934C
:1012F000B4022091AE023091AF028091BC02909175
:10130000BD02820F931F9093BD028093BC02209177
:10131000B6023091B7028091AE029091AF02820F77
:10132000931F9093B7028093B6022091B802309138
:10133000B9028091AE029091AF02820F931F9093F9
:10134000B9028093B8022091BA023091BB02809119
:10135000AE029091AF0264E670E00E944810260F42
:10136000371F3093BB022093BA028091BA0290914A
:10137000BB0281509D4720F01092BB021092BA022E
:101380008FEF90E09093AF028093AE028FEF87BD16
:101390008091B4029091B502875292406CF1809195
:1013A0008F01813049F58091A8029091A902892B83
:1013B000A1F480919601609197014091980190E08D
:1013C00070E050E00E947104009739F0019729F411
:1013D0001092B5021092B4020FC00E94F7106FEF86
:1013E00070E00E9448109093AF028093AE0280910B
:1013F000AE029091AF0287BD8091BC029091BD0278
:10140000885F9840A4F01092BD021092BC02109226
:10141000330310923203109235031092340310926A
:101420003703109236031092B3021092B202FF916A
:10143000EF91BF91AF919F918F917F916F915F914C
:101440004F913F912F910F900FBE0F901F901895C5
:10145000EF92FF920F931F937B018C0120E030E00D
:1014600040E05FE40E94F80C88238CF0C801B701CB
:1014700020E030E040E05FE40E94A00B0E94860D77
:101480009B01AC01205030404040504806C0C8018C
:10149000B7010E94860D9B01AC01B901CA011F91E1
:1014A0000F91FF90EF900895A0E0B0E0EAE5FAE038
:1014B0000C946F10DC012B01FA019C91923008F41E
:1014C00039C1EB018881823008F433C1943069F46A
:1014D000843009F02FC111969C911197898198173A
:1014E00009F428C1A9E9B1E025C1843009F421C17A
:1014F0008230A9F4923009F01DC19A01AD0188E053
:10150000EA010990AE01E90109929E018150C1F7FB
:10151000E201898111969C918923818308C19230CF
:1015200009F407C112962D903C901397EB018A8124
:101530009B811496AD90BD90CD90DC901797EC8078
:10154000FD800E811F819101281B390BB90137FFE6
:1015500004C066277727621B730B603271050CF09D
:1015600061C0121613066CF537014801062E04C03F
:1015700096948794779467940A94D2F721E030E0A8
:1015800040E050E004C0220F331F441F551F6A95EE
:10159000D2F721503040404050402E213F2140237F
:1015A0005123211531054105510521F021E030E09D
:1015B00040E050E079018A01E628F7280829192936
:1015C0003CC0232BD1F1260E371E35014601062ED5
:1015D00004C096948794779467940A94D2F721E094
:1015E00030E040E050E004C0220F331F441F551F7D
:1015F0006A95D2F721503040404050402A213B218B
:101600004C215D21211531054105510521F021E0D5
:1016100030E040E050E059016A01A628B728C82808
:10162000D9280BC0821593052CF01C01AA24BB24D9
:10163000650103C0EE24FF24870111969C91D2011D
:1016400011968C91981709F445C0992339F0A80197
:1016500097012A193B094C095D0906C0A6019501AD
:101660002E193F09400B510B57FD08C011823382E0
:10167000228224833583468357831DC081E0818382
:101680003382228288279927DC01821B930BA40BCB
:10169000B50B84839583A683B7830DC0220F331FB8
:1016A000441F551F2483358346835783828193814A
:1016B0000197938382832481358146815781DA01A2
:1016C000C9010197A109B1098F5F9F4FAF4FBF4378
:1016D00028F30BC0918333822282EA0CFB1C0C1D81
:1016E0001D1DE482F5820683178383E080832481B5
:1016F00035814681578157FF1AC0C901AA2797FD36
:10170000A095BA2F81709070A070B07056954795D3
:1017100037952795822B932BA42BB52B8483958308
:10172000A683B78382819381019693838283DF01AD
:1017300001C0D201CD01CDB7DEB7E2E10C948B1030
:10174000A0E2B0E0E6EAFBE00C947B1069837A83C8
:101750008B839C832D833E834F835887E9E0EE2E55
:10176000F12CEC0EFD1ECE010196B7010E94770F01
:101770008E010F5E1F4FCE010596B8010E94770FB4
:101780008A8991E089278A8BC701B801AE01475E3B
:101790005F4F0E94540A0E94A20EA096E6E00C94AD
:1017A0009710A0E2B0E0E7EDFBE00C947B106983BA
:1017B0007A838B839C832D833E834F835887F9E004
:1017C000EF2EF12CEC0EFD1ECE010196B7010E940A
:1017D000770F8E010F5E1F4FCE010596B8010E9454
:1017E000770FC701B801AE01475E5F4F0E94540AF0
:1017F0000E94A20EA096E6E00C949710A0E2B0E042
:10180000E4E0FCE00C946F1069837A838B839C8303
:101810002D833E834F835887CE010196BE01675FBB
:101820007F4F0E94770FCE010596BE016F5E7F4FFE
:101830000E94770F9985923088F089898230C8F0AC
:10184000943019F4823051F404C0843029F4923079
:1018500081F489E991E0C6C0923049F420E09A858C
:101860008A89981321E02A87CE010996BBC082306D
:1018700049F420E09A858A89981321E02A8BCE01C9
:101880004196B0C02D843E844F8458886D887E88F0
:101890008F88988CEE24FF248701AA24BB2465013D
:1018A00040E050E060E070E0E0E0F0E0C101817015
:1018B0009070892BE9F0E60CF71C081D191D9A01A0
:1018C000AB012A0D3B1D4C1D5D1D80E090E0A0E0AA
:1018D000B0E0E614F7040805190520F481E090E073
:1018E000A0E0B0E0BA01A901480F591F6A1F7B1F91
:1018F000AA0CBB1CCC1CDD1C97FE08C081E090E04C
:10190000A0E0B0E0A82AB92ACA2ADB2A3196E03240
:10191000F10549F0660C771C881C991C5694479475
:1019200037942794C3CFFA85EA892B893C898B8524
:101930009C85280F391F2E5F3F4F17C0CA01817049
:101940009070892B61F016950795F794E79480E0E5
:1019500090E0A0E0B0E8E82AF92A0A2B1B2B769544
:101960006795579547952F5F3F4F77FDE7CF0CC0A1
:10197000440F551F661F771F17FD4160EE0CFF1CBB
:10198000001F111F21503040403090E0590790E077
:10199000690790E4790760F32B8F3C8FDB01CA0164
:1019A0008F779070A070B07080349105A105B1055B
:1019B00061F447FD0AC0E114F1040105110529F0A5
:1019C000405C5F4F6F4F7F4F40781A8EFE1711F0CB
:1019D00081E08A8F4D8F5E8F6F8F78A383E0898F30
:1019E000CE0149960E94A20EA096E2E10C948B10C3
:1019F000A8E1B0E0EEEFFCE00C947B1069837A8301
:101A00008B839C832D833E834F83588789E0E82E08
:101A1000F12CEC0EFD1ECE010196B7010E94770F4E
:101A20008E010F5E1F4FCE010596B8010E94770F01
:101A30008985823040F08989823028F0C701B80159
:101A40000E94EF0F01C08FEF6896E6E00C949710AC
:101A5000A8E0B0E0EEE2FDE00C9478109B01AC0150
:101A600083E08983DA01C9018827B7FD8395992727
:101A7000AA27BB27B82E211531054105510519F4B8
:101A800082E089833AC08823A9F0203080E03807BB
:101A900080E0480780E8580729F460E070E080E0C3
:101AA0009FEC30C0EE24FF248701E21AF30A040BF6
:101AB000150B02C079018A018EE1C82ED12CDC827F
:101AC000CB82ED82FE820F831887C801B7010E9486
:101AD000530E01971816190684F4082E04C0EE0C54
:101AE000FF1C001F111F0A94D2F7ED82FE820F83A4
:101AF0001887C81AD90ADC82CB82BA82CE01019635
:101B00000E94A20E2896E9E00C949410ACE0B0E09C
:101B1000ECE8FDE00C947F1069837A838B839C83CF
:101B2000CE010196BE016B5F7F4F0E94770F8D81C2
:101B3000823061F1823050F1843021F48E8188232B
:101B400051F12EC02F81388537FD20C06E812F3195
:101B500031051CF06623F9F023C08EE190E0821B72
:101B6000930B29853A854B855C8504C0569547952E
:101B7000379527958A95D2F76623B1F05095409511
:101B8000309521953F4F4F4F5F4F0EC020E030E022
:101B900040E050E009C02FEF3FEF4FEF5FE704C098
:101BA00020E030E040E050E8B901CA012C96E2E0C4
:101BB0000C949B10A8E0B0E0E0EEFDE00C947710F0
:101BC0007B018C01611571058105910519F482E095
:101BD000898360C083E089838EE1C82ED12CDC82AA
:101BE000CB82ED82FE820F831887C801B7010E9465
:101BF000530EFC013197F7FF3BC0222733272E1BE2
:101C00003F0B57016801022E04C0D694C794B794C5
:101C1000A7940A94D2F740E050E060E070E081E0E1
:101C200090E0A0E0B0E004C0880F991FAA1FBB1F7E
:101C30002A95D2F70197A109B1098E219F21A023EE
:101C4000B1230097A105B10521F041E050E060E02B
:101C500070E04A295B296C297D294D835E836F835F
:101C600078878EE190E08E1B9F0B9C838B8312C044
:101C7000309781F00E2E04C0EE0CFF1C001F111FC8
:101C80000A94D2F7ED82FE820F831887CE1ADF0AFC
:101C9000DC82CB821A82CE0101960E94A20E289687
:101CA000EAE00C949310EF92FF920F931F937B0145
:101CB0008C0180E0E81680E0F80681E0080780E00B
:101CC000180788F48FEFE816F1040105110531F0CB
:101CD00028F088E090E0A0E0B0E017C080E090E05D
:101CE000A0E0B0E012C080E0E81680E0F80680E0F6
:101CF000080781E0180728F088E190E0A0E0B0E054
:101D000004C080E190E0A0E0B0E020E230E040E0FC
:101D100050E0281B390B4A0B5B0B04C01695079546
:101D2000F794E7948A95D2F7F701EF55FE4F80813B
:101D3000281B310941095109C9011F910F91FF90D9
:101D4000EF900895DF92EF92FF920F931F93FC01A3
:101D5000E480F58006811781D1808081823048F44B
:101D600080E090E0A0E1B0E0E82AF92A0A2B1B2BE2
:101D7000A5C0843009F49FC0823021F4EE24FF24F2
:101D8000870105C0E114F1040105110519F4E0E033
:101D9000F0E096C0628173819FEF623879070CF0A2
:101DA0005BC022E83FEF261B370B2A3131052CF0B0
:101DB00020E030E040E050E02AC0B801A701022E48
:101DC00004C076956795579547950A94D2F781E0B8
:101DD00090E0A0E0B0E004C0880F991FAA1FBB1FCD
:101DE0002A95D2F70197A109B1098E219F21A0233D
:101DF000B1230097A105B10521F081E090E0A0E0BA
:101E0000B0E09A01AB01282B392B4A2B5B2BDA016E
:101E1000C9018F779070A070B07080349105A105D2
:101E2000B10539F427FF09C0205C3F4F4F4F5F4F8A
:101E300004C0215C3F4F4F4F5F4FE0E0F0E02030A7
:101E4000A0E03A07A0E04A07A0E45A0710F0E1E05A
:101E5000F0E079018A0127C06038710564F5FB0163
:101E6000E158FF4FD801C7018F779070A070B07014
:101E700080349105A105B10539F4E7FE0DC080E479
:101E800090E0A0E0B0E004C08FE390E0A0E0B0E01C
:101E9000E80EF91E0A1F1B1F17FF05C016950795B0
:101EA000F794E794319687E016950795F794E794B1
:101EB0008A95D1F705C0EE24FF248701EFEFF0E00B
:101EC0006E2F679566276795902F9F77D794DD24AF
:101ED000D7948E2F8695492F462B582F5D29B70111
:101EE000CA011F910F91FF90EF90DF900895FC01C0
:101EF000DB01408151812281622F6F7770E0221FC8
:101F00002227221F9381892F880F822B282F30E0D0
:101F1000991F9927991F11969C93119721153105A7
:101F2000A9F5411551056105710511F482E037C02D
:101F300082E89FEF13969C938E9312979A01AB01C0
:101F400067E0220F331F441F551F6A95D1F783E0C6
:101F50008C930DC0220F331F441F551F12968D9175
:101F60009C911397019713969C938E931297203010
:101F700080E0380780E0480780E4580758F314965B
:101F80002D933D934D935C93179708952F3F310503
:101F900079F4411551056105710519F484E08C93BC
:101FA000089564FF03C081E08C9312C01C9210C09E
:101FB0002F57304013963C932E93129783E08C93C7
:101FC00087E0440F551F661F771F8A95D1F770640D
:101FD00014964D935D936D937C93179708951F937B
:101FE000DC01FB019C91923008F447C08081823073
:101FF00008F443C0943051F411961C91843099F543
:102000008181682F70E0611B71093FC0843021F02D
:10201000923031F48230B9F18181882389F12DC069
:1020200011961C9111978230F1F081811817D9F423
:1020300012962D913C911397828193818217930779
:1020400094F028173907BCF014968D919D910D904E
:10205000BC91A02D248135814681578128173907ED
:102060004A075B0718F4112341F00AC0821793074F
:10207000A407B50740F4112319F061E070E005C032
:102080006FEF7FEF02C060E070E0CB011F91089519
:1020900097FB092E07260AD077FD04D00CD006D076
:1020A00000201AF4709561957F4F0895F6F790958A
:1020B00081959F4F0895AA1BBB1B51E107C0AA1F22
:1020C000BB1FA617B70710F0A61BB70B881F991FD9
:1020D0005A95A9F780959095BC01CD0108952F924E
:1020E0003F924F925F926F927F928F929F92AF92A8
:1020F000BF92CF92DF92EF92FF920F931F93CF93F5
:10210000DF93CDB7DEB7CA1BDB0B0FB6F894DEBF8B
:102110000FBECDBF09942A88398848885F846E84B1
:102120007D848C849B84AA84B984C884DF80EE80FB
:10213000FD800C811B81AA81B981CE0FD11D0FB604
:10214000F894DEBF0FBECDBFED010895A0E0B0E072
:10215000ECEAF0E10C947710EC01A880B980CA8019
:10216000DB80A114B104C104D10441F484E2A82E9F
:1021700089EDB82E8BE5C82E87E0D82EC601B501B3
:102180002DE133EF41E050E00E945F1127EA31E496
:1021900040E050E00E9440117B018C01C601B50176
:1021A0002DE133EF41E050E00E945F11CA01B90117
:1021B0002CEE34EF4FEF5FEF0E9440116E0D7F1D4C
:1021C000801F911F97FF04C061507040804090486D
:1021D000688379838A839B839B013F77C901CDB74D
:1021E000DEB7EAE00C9493100E94A610089581EAED
:1021F00092E00E94A6100895A0E0B0E08093A102B2
:102200009093A202A093A302B093A4020895FB01AD
:102210009F01E8944230C4F04532B4F44A3029F4C6
:1022200097FB1EF4909581959F4F642F77270E940E
:102230005B10805D8A330CF0895D8193CB01009740
:10224000A1F716F45DE251931082C9010C9430118C
:10225000F999FECF92BD81BDF89A992780B508956E
:10226000DC01FC01672F71917723E1F7329704C0FD
:102270007C916D9370836291AE17BF07C8F3089588
:10228000629FD001739FF001829FE00DF11D649F5A
:10229000E00DF11D929FF00D839FF00D749FF00DE6
:1022A000659FF00D9927729FB00DE11DF91F639F87
:1022B000B00DE11DF91FBD01CF011124089597FB59
:1022C000092E05260ED057FD04D014D00AD0001CCC
:1022D00038F450954095309521953F4F4F4F5F4FC3
:1022E0000895F6F790958095709561957F4F8F4F83
:1022F0009F4F0895A1E21A2EAA1BBB1BFD010DC022
:10230000AA1FBB1FEE1FFF1FA217B307E407F507A5
:1023100020F0A21BB30BE40BF50B661F771F881F81
:10232000991F1A9469F760957095809590959B0117
:0C233000AC01BD01CF010895F894FFCF6F
:10233C00737461727420696E6974002020202020EF
:10234C0020202020202020202020202020202000A1
:10235C0043616C6962726174696F6E20646174614F
:10236C0020202020006C6F77206761696E20202070
:10237C002020202020202000686967682067616980
:10238C006E202020202020202020200074786D61D9
:10239C00736B2020202020002020202020202020B3
:1023AC0020202020004F534343414C20202020204C
:1023BC000070726F6772616D2073746172740001CA
:1023CC00010003000100C8C8C800000000000000A4
:1023DC0000000102020303030304040404040404C4
:1023EC000405050505050505050505050505050592
:1023FC000506060606060606060606060606060672
:10240C000606060606060606060606060606060660
:10241C000607070707070707070707070707070741
:10242C000707070707070707070707070707070730
:10243C000707070707070707070707070707070720
:10244C000707070707070707070707070707070710
:10245C0007080808080808080808080808080808F1
:10246C0008080808080808080808080808080808E0
:10247C0008080808080808080808080808080808D0
:10248C0008080808080808080808080808080808C0
:10249C0008080808080808080808080808080808B0
:1024AC0008080808080808080808080808080808A0
:1024BC000808080808080808080808080808080890
:1024CC000808080808080808080808080808080880
:0624DC00080100000000F1
:107000000C9434380C9451380C9451380C945138F9
:107010000C9451380C9451380C9451380C945138CC
:107020000C9451380C9451380C9451380C945338BA
:107030000C9451380C9451380C9451380C945138AC
:107040000C9451380C9451380C9451380C9451389C
:107050000C9451380C9451380C9451380C9482395A
:107060000C9451380C94513811241FBECFEFD8E046
:10707000DEBFCDBF11E0A0E0B1E0E4E5F9E702C07A
:1070800005900D92A031B107D9F711E0A0E1B1E070
:1070900001C01D92AD35B107E1F70E94973A0C94FB
:1070A000A83C0C9400381F920F920FB60F92112437
:1070B0002F933F934F935F936F937F938F939F9300
:1070C000AF93BF93EF93FF93A1E0B0E0B0930E01B5
:1070D000A0930D013C9A3C98809110019091110170
:1070E000892B99F580915C0190E0909353018093F6
:1070F0005201B0931101A093100180915C0188238B
:1071000009F4EDC0109253011092520110925501F2
:107110001092540110925701109256011092590189
:107120001092580110925B0110925A011092810046
:10713000109285001092840010921101109210019B
:107140001092130110921201CAC080911001909107
:107150001101019751F480915C0190E090935501E9
:107160008093540182E090E00FC0809110019091D3
:107170001101029771F480915C0190E090935701A6
:107180008093560183E090E0909311018093100169
:10719000A6C08091100190911101039751F4809144
:1071A0005C0190E0909359018093580184E090E055
:1071B000EBCF8091100190911101049709F08FC0DD
:1071C00080915C0190E090935B0180935A01109252
:1071D000110110921001809154019091550120915C
:1071E00056013091570140915801509159016091D9
:1071F0005A0170915B01820F8058840F90E08617CE
:10720000970709F04EC08091520190915301892B4C
:1072100009F047C0E0915001F09151018091540173
:1072200090915501EE0FFF1FEC5EFE4F918380831E
:10723000E0915001F09151018091560190915701D8
:10724000EE0FFF1FE25EFE4F91838083E0915001BD
:10725000F09151018091580190915901EE0FFF1F5B
:10726000E85DFE4F91838083E0915001F0915101E0
:10727000EE0FFF1FEA5BFE4FB183A08380915001A8
:10728000909151010196909351018093500180910A
:10729000500190915101049721F4109251011092E4
:1072A000500110921301109212011092530110928A
:1072B00052011092550110925401109257011092F0
:1072C0005601109259011092580110925B011092D0
:1072D0005A01109281001092850010928400109241
:1072E0005C01FF91EF91BF91AF919F918F917F9141
:1072F0006F915F914F913F912F910F900FBE0F9023
:107300001F9018951F920F920FB60F9211242F9372
:107310003F938F939F9320918400309185008091BB
:107320000D0190910E01019711F5109285001092B8
:10733000840081E08093810080917A008F7D80932A
:107340007A008091100190911101892B29F48BE032
:107350008093890080E304C088E08093890080EAFC
:107360008093880010920E0110920D0139C084E0C4
:107370002A3B3807D4F482E0203A38075CF42359DA
:10738000314024F480915C01805828C080915C01D8
:10739000805C24C02D5A334024F480915C01805ECF
:1073A0001DC080915C01805F19C086E0243D3807D4
:1073B0005CF4275C354024F480915C01885F0EC04A
:1073C00080915C018C5F0AC0215E374024F480917B
:1073D0005C018E5F03C080915C018F5F80935C01D4
:1073E00081E090E090931301809312019F918F911F
:1073F0003F912F910F900FBE0F901F901895809383
:10740000C6008091C00085FFFCCF0895982F40FFF3
:1074100002C03D9A01C03D98842F859580FF02C02F
:107420003C9A01C03C9890FF02C0559A01C0559803
:10743000892F859580FF02C0549A01C0549860FF3F
:1074400002C03B9A01C03B98862F859580FF02C001
:107450003A9A08953A980895AC0120E030E0FA0194
:10746000E20FF31F80818093C6008091C00085FFEA
:10747000FCCF2F5F3F4F2A30310589F78AE0809398
:10748000C6008091C00085FFFCCF8DE08093C600D0
:107490008091C00085FFFCCF0895EF92FF920F937B
:1074A0001F93DF93CF93CDB7DEB72A970FB6F8942B
:1074B000DEBF0FBECDBF8E010F5F1F4F78019E0153
:1074C000255F3F4FF70111927F01E217F307D1F7D4
:1074D000BE016F5F7F4F4AE050E00E945B3CF801C5
:1074E00080818093C6008091C00085FFFCCF0F5F34
:1074F0001F4F0E151F0599F78AE08093C6008091F3
:10750000C00085FFFCCF8DE08093C6008091C00055
:1075100085FFFCCF2A960FB6F894DEBF0FBECDBF15
:10752000CF91DF911F910F91FF90EF9008952F92CF
:107530003F924F925F926F927F928F929F92AF9203
:10754000BF92CF92DF92EF92FF920F931F93DF9340
:10755000CF93CDB7DEB7CE55D1400FB6F894DEBF8E
:107560000FBECDBF10924701109246011092490103
:107570001092480110924B0110924A0110924D0155
:1075800010924C0110924F0110924E0184E08AB982
:107590008BB914B815B817B818B85C98529A5A9A9B
:1075A00081E090E00E947C3C80936600539A239A8D
:1075B0008091B000816A8093B0008091B1008260B8
:1075C0008093B1001092B4001092B300519A81E000
:1075D00090E09093C5008093C4001092C000809109
:1075E000C10088608093C1008091C2008660809352
:1075F000C20080B78B6080BF83E080937F001092D1
:10760000800021E02093810092E090936F0082E35C
:10761000809389001092880025BF95BFFE01ED5729
:10762000FF4FCE01815A9E4F1192E817F907E1F7FB
:1076300087E060E040E00E94063A80ED97E028ECA9
:1076400030E0F9013197F1F70197D9F780E067E071
:1076500040E00E94063A88EE93E028EC30E0F90121
:107660003197F1F70197D9F780E060E047E00E9499
:10767000063A88EE93E028EC30E0F9013197F1F713
:107680000197D9F780E060E040E00E94063A7894E4
:10769000AA24BB2488243E010894611C711C63E861
:1076A000462E512C4C0E5D1E51E8252E312C2C0EF1
:1076B0003D1EF1C0009150011091510120E030E0D9
:1076C0000430110519F400E010E002C00F5F1F4FF5
:1076D000D801AA0FBB1FAA5BBE4F8D919C91119739
:1076E000019709F07EC0F801EE0FFF1FE85DFE4F25
:1076F000808191818A3F910581F4000F111F0C5EFA
:107700001E4FF80180819181982EA82EBB241196DE
:107710001C921E92EE24FF24CDCF808191818E3F5A
:10772000910521F061E8E616F10494F170E8E7169E
:10773000F104D1F48FEF981601F1F801EE0FFF1F5D
:10774000EC5EFE4F80819181982F8827F801EE0F23
:10775000FF1FE25EFE4F20813181820F931F8A1549
:107760009B0559F481E00AC080E091E00E942C3A28
:1077700087E060E040E00E94063A80E0000F111FC1
:107780000A5B1E4FF80111821082882389F592CF7F
:1077900080819181892B09F08DCF000F111FF80195
:1077A000EC5EFE4F40815181F301EE0DFF1D4083E1
:1077B00097012F5F3F4F025E1E4FF801808191813C
:1077C000F301E20FF31F808390E0840F911DA80E58
:1077D000B91E79010894E11CF11C11961C921E92AD
:1077E00069CF2F5F3F4F2530310509F069CF62CF58
:1077F000FBEDF91508F44CC0092D10E0F201E00F83
:10780000F11F8081882309F043C067E040E00E94B7
:10781000063AD301A8015695542F4427579547950A
:107820009A018C911196DC901197CC24B601680FC7
:10783000711DCB0161E0F9010C0160935700E895DF
:10784000112412962E5F3F4FA215B30551F7F999F7
:10785000FECF63E0FA0160935700E89507B600FC9D
:10786000FDCF65E0FA0160935700E89507B600FC8C
:10787000FDCF040D151D61E0F8016083839471E173
:1078800070935700E89580E060E047E00E94063A78
:107890008CED881629F0EE24FF2499249A940ACFBF
:1078A00081E085BF15BE0C94000080E060E047E0F9
:1078B0000E94063AFFCFFB019F01E8944230C4F0DA
:1078C0004532B4F44A3029F497FB1EF49095819523
:1078D0009F4F642F77270E94943C805D8A330CF081
:1078E000895D8193CB010097A1F716F45DE2519376
:1078F0001082C9010C94843CF999FECF92BD81BDE0
:10790000F89A992780B50895DC01FC01672F7191E1
:107910007723E1F7329704C07C916D937083629175
:10792000AE17BF07C8F30895AA1BBB1B51E107C0E0
:10793000AA1FBB1FA617B70710F0A61BB70B881FFF
:10794000991F5A95A9F780959095BC01CD0108958E
:04795000F894FFCFD9
:10795400706167655F62616464646464000100006F
:040000030000700089
:00000001FF

