:107000000C9434380C9446380C9446380C9446381A
:107010000C9446380C9446380C9446380C944638F8
:107020000C9446380C9446380C9446380C944638E8
:107030000C9446380C9446380C9446380C944638D8
:107040000C9446380C9446380C94F6390C94463817
:107050000C9446380C9446380C9446380C944638B8
:107060000C9446380C94463811241FBECFEFD8E05C
:10707000DEBFCDBF11E0A0E0B1E001C01D92A430A1
:10708000B107E1F70E943B390C940C3A0C9400389C
:10709000F894E1ECF0E0808188698083E2ECF0E034
:1070A00080818660808389E190E09093C500809321
:1070B000C40078940895CF92DF92EF92FF920F93DD
:1070C0001F93DF93CF93CDB7DEB72C970FB6F8940D
:1070D000DEBF0FBECDBF7894539A89836A834B83FA
:1070E0008058860F840F8C836E010894C11CD11CBC
:1070F000DE0115968D017D01F60161916F0170E051
:107100009B0120723070F3E035952795FA95E1F7F1
:10711000CB018071907095958795280F391FCB0111
:107120008074907055E0959587955A95E1F7280FF2
:10713000391FCB01880F892F881F990B9195280F34
:10714000391FCB0181709070880F991F880F991F8C
:10715000AB0142705070840F951F880F991F880FE4
:10716000991FAB0144705070840F951F880F991FB1
:10717000880F991F68707070860F971F880F991F6E
:10718000280F391F220F331F2F5F3F4FF801219324
:1071900031938F01CE14DF0409F0AECFF8948091C3
:1071A000020190910301892B09F042C05B9A000013
:1071B00000005B9880E090E0000001968533910527
:1071C000D9F780E090E000B605FE01C0000000B6EF
:1071D00005FE01C000000196813C9105A1F71FC08A
:1071E00020FF04C05B9A0000000003C05B98000011
:1071F00000005B9880E090E00000019683329105EA
:10720000D9F73695279541505040FFEF4F3F5F0724
:1072100039F72D933D93A617B70721F40EC0BE0191
:10722000635F7F4F2D913C91119748E050E0D8CF9C
:107230005B98789425E030E00EC05B9880E090E0A9
:107240000000019682339105D9F780B7806180BF35
:10725000789421E030E0C9012C960FB6F894DEBF97
:107260000FBECDBFCF91DF911F910F91FF90EF9097
:10727000DF90CF900895FF920F931F93CF93DF93EA
:1072800086E084B98CE08AB95B9881E085BF82E0B2
:1072900085BF0E944838299A5A9A80ED97E028ECD9
:1072A00030E0F9013197F1F70197D9F729985A9809
:1072B00080ED97E028EC30E0F9013197F1F7019784
:1072C000D9F7299A5A9A80ED97E028EC30E0F90135
:1072D0003197F1F70197D9F729985A98A4E0FA2E37
:1072E00000E717E1C0EADFE0809100019091010121
:1072F000892BD1F380910001909101018136910594
:1073000079F41092010110920001FBB881E090E045
:1073100061E070E040E050E00E945B3878945EC02D
:1073200080910001909101018236910579F41092CB
:10733000010110920001FBB882E090E062E070E091
:1073400040E050E00E945B38789448C08091000192
:10735000909101018436910579F410920101109207
:107360000001FBB883E090E063E070E040E050E0B3
:107370000E945B38789432C08091000190910101A5
:107380008A36910579F41092010110920001FBB840
:1073900081E090E062E070E040E050E00E945B3805
:1073A00078941CC080910001909101018336910571
:1073B00079F41092010110920001FBB882E090E094
:1073C00061E070E040E050E00E945B38789406C0D5
:1073D0001092010110920001FBB87894C801019746
:1073E000F1F75A98CE010197F1F77ECF1F920F92D5
:1073F0000FB60F9211248F939F938091C60090E057
:107400009093010180930001299A9F918F910F9091
:0C7410000FBE0F901F901895F894FFCF4E
:040000030000700089
:00000001FF
