:100000000C9434000C9451000C9451000C94510049
:100010000C9451000C9451000C94E3060C94510084
:100020000C9451000C9451000C9451000C9453000A
:100030000C9451000C9451000C942A0F0C94510014
:100040000C9451000C9451000C9451000C945100EC
:100050000C9451000C9451000C9451000C94190410
:100060000C9451000C94510011241FBECFEFD8E026
:10007000DEBFCDBF12E0A0E0B1E0E0E8F0E302C0F7
:1000800005900D92AC32B107D9F713E0ACE2B2E0C3
:1000900001C01D92A934B107E1F70E9491090C94A7
:1000A0003E180C9400001F920F920FB60F9211246D
:1000B0003F924F925F926F927F928F929F92AF92F8
:1000C000BF92CF92DF92EF92FF920F931F932F93E5
:1000D0003F934F935F936F937F938F939F93AF93D0
:1000E000BF93CF93DF93EF93FF9321E030E0309302
:1000F0001F0120931E018091B9029091BA02892BB1
:1001000009F047C0809178009091790090930003A6
:100110008093FF0210927C0042EB40937A0091E0C2
:1001200090937B0080910103809302033093BA0285
:100130002093B90280910103882309F442C01092F0
:10014000020310920303109204031092050310920D
:10015000060390937C0040937A0090937B0010926A
:10016000810010928500109284001092BA021092C1
:10017000B90210925502109254028091BB029091E4
:10018000BC0203969093BC028093BB0285E085BDC0
:1001900018C08091B9029091BA02019709F5809137
:1001A0007800909179009093FE028093FD028091F7
:1001B00001038093030382E090E09093BA0280935E
:1001C000B9028091570290915802209178003091A5
:1001D0007900820F931F909358028093570202C3B5
:1001E0008091B9029091BA02029739F4809101038B
:1001F0008093040383E090E00CC08091B902909159
:10020000BA02039759F4809101038093050384E0B7
:1002100090E09093BA028093B902E4C28091B9024F
:100220009091BA02049709F0DDC280910103809396
:1002300006031092BA021092B902809103039091C2
:1002400004032091050330910603890F8058820F23
:10025000831709F0A0C280910203882309F09BC292
:100260008091FD029091FE02845893401CF033244B
:100270003A9499C02091FD023091FE028091E102F2
:100280009091E2028217930714F433248CC051E05A
:10029000452E512C2091FD023091FE02E201CC0F3F
:1002A000DD1FCF51DD4F888199818217930754F06C
:1002B0000894411C511C8EE04816510459F72AE558
:1002C000322E71C068817981F201EE0FFF1FE15279
:1002D000FD4F20813181621B730B882777FD80954C
:1002E000982F0E94CA139B01AC010E9497113B01F9
:1002F0004C01E880F9806091FD027091FE02882730
:1003000077FD8095982F0E94CA135B016C0100272E
:10031000F7FC0095102FC801B7010E94CA137B019A
:100320008C01B201882777FD8095982F0E94CA130F
:1003300020E030E040E05FE30E94C41120E030E0C4
:1003400040E050E00E9497119B01AC01C401B30151
:100350000E94C4119B01AC01C801B7010E94661143
:100360009B01AC01C601B5010E94661120E030E09E
:1003700040E251E40E94C4110E9428147B018C01C8
:10038000C401B3010E9428149B01AC01C701B9014B
:100390000E94EA16882777FD8095982F0E94CA133D
:1003A0000E94EE0F362E8091FD029091FE028D5B31
:1003B00092400CF4F3C02091FF0230910003809131
:1003C000C5029091C6028217930714F455248EC07B
:1003D00081E0482E512C2091FF0230910003E20170
:1003E000CC0FDD1FCB53DD4F888199818217930796
:1003F00044F00894411C511C8EE04816510459F7F2
:1004000015C268817981F201EE0FFF1FED53FD4F98
:1004100020813181621B730B882777FD8095982F8F
:100420000E94CA139B01AC010E9497113B014C0131
:10043000E880F9806091FF0270910003882777FDC2
:100440008095982F0E94CA135B016C010027F7FC6E
:100450000095102FC801B7010E94CA137B018C01BF
:10046000B201882777FD8095982F0E94CA1320E05B
:1004700030E040E05FE30E94C41120E030E040E063
:1004800050E00E9497119B01AC01C401B3010E948E
:10049000C4119B01AC01C801B7010E9466119B0108
:1004A000AC01C601B5010E94661120E030E040E2D7
:1004B00051E40E94C4110E9428147B018C01C401E4
:1004C000B3010E9428149B01AC01C701B9010E942D
:1004D000EA16882777FD8095982F0E94CA130E94FC
:1004E000EE0F562E2FEF621709F458C08FEF381613
:1004F00011F4652D54C0E090FD02F090FE02A09032
:10050000FD02B090FE02632D70E080E090E00E945A
:100510007C143B014C010027F7FC0095102FC8010B
:10052000B7010E94CA139B01AC0160E070E081E654
:1005300094E40E9466119B01AC01C401B3010E94C6
:10054000C4113B014C01652D70E080E090E00E94F9
:100550007C147B018C01CC24B7FCC094DC2CC6013C
:10056000B5010E94CA1320E030E04FE254E40E943B
:1005700066119B01AC01C801B7010E94C4119B0127
:10058000AC01C401B3010E94971120E030E048E4BF
:1005900053E40E94BE120E94EE0F01C0632DE09151
:1005A0003703F09138038091030390E0EE0FFF1FB3
:1005B000E95FFC4F91838083E0913703F09138032A
:1005C0008091040390E0EE0FFF1FE15FFC4F9183E9
:1005D0008083E0913703F09138038091050390E028
:1005E000EE0FFF1FE95EFC4F91838083E09137039C
:1005F000F09138036F5D862F90E0EE0FFF1FE15EF4
:10060000FC4F91838083E0913703F0913803809110
:10061000FD029091FE02EE0FFF1FE95DFC4F9183FA
:100620008083E0913703F0913803EE0FFF1FE15D07
:10063000FC4F81E090E0918380838091370390911B
:1006400038030196909338038093370380913703E2
:1006500090913803049721F41092380310923703D5
:100660008091050380FF97C080910403882309F0DF
:1006700092C080910303893008F08DC02091100151
:10068000309111018091030390E02817390709F494
:1006900082C080910303833009F468C040E050E0D9
:1006A0001FC0FA01EE0FFF1FED5BFC4F208131816F
:1006B0008091030390E02817390781F010924403DA
:1006C0001092430310924603109245031092480380
:1006D000109247031092BE021092BD024F5F5F4F0F
:1006E0008091BD029091BE0248175907D4F28091C3
:1006F000BD029091BE020397B4F4E091BD02F09167
:10070000BE028091030390E0EE0FFF1FED5BFC4FF4
:10071000918380838091BD029091BE020196909357
:10072000BE028093BD028091BD029091BE020397EC
:10073000E9F48091030390E09093110180931001FC
:1007400081E090E090930F0180930E01109244039A
:1007500010924303109246031092450310924803EF
:10076000109247031092BE021092BD0280910303C3
:10077000833089F421E030E0309353022093520219
:100780008091030390E090931101809310013093C6
:100790000F0120930E0191E090937C0082EB8093F7
:1007A0007A0090937B00109255021092540210929E
:1007B0000203109203031092040310920503109297
:1007C000060310928100109285001092840080919F
:1007D000BB029091BC020C969093BC028093BB022A
:1007E00085E085BD10920103FF91EF91DF91CF91DC
:1007F000BF91AF919F918F917F916F915F914F9139
:100800003F912F911F910F91FF90EF90DF90CF902C
:10081000BF90AF909F908F907F906F905F904F9020
:100820003F900F900FBE0F901F9018958AE5582E9D
:100830005DCE1F920F920FB60F9211242F933F930C
:100840008F939F93209184003091850015BC8091F7
:100850001E0190911F01019711F5109285001092D1
:10086000840081E08093810080917A008F7D809365
:100870007A008091B9029091BA02892B29F489E01B
:100880008093890080E804C088E08093890080E438
:100890008093880010921F0110921E0139C084E0DD
:1008A0002F393807D4F482E02B3838075CF421580C
:1008B000314024F480910103805828C080910103C5
:1008C000805C24C02559334024F480910103805E6C
:1008D0001DC080910103805F19C086E0233B38076B
:1008E0005CF4295A354024F480910103885F0EC0DE
:1008F000809101038C5F0AC02D5B374024F4809106
:1009000001038E5F03C0809101038F5F8093010319
:1009100081E090E090935502809354029F918F91D3
:100920003F912F910F900FBE0F901F901895AC0123
:1009300020E030E0FA01E20FF31F80818093C600CF
:100940008091C00085FFFCCF2F5F3F4F2A303105DB
:1009500089F78AE08093C6008091C00085FFFCCFB4
:1009600008958AE08093C6008091C00085FFFCCF87
:100970000895CF92DF92EF92FF920F931F93DF9330
:10098000CF93CDB7DEB72C970FB6F894DEBF0FBE6E
:10099000CDBF282F789480915402909155020197F1
:1009A00019F422E030E0C7C0549A29836A834B834C
:1009B0002058260F240F2C836E010894C11CD11CD3
:1009C000DE0115968D017D01F60161916F0170E0E8
:1009D0009B0120723070F3E035952795FA95E1F789
:1009E000CB018071907095958795280F391FCB01A9
:1009F0008074907055E0959587955A95E1F7280F8A
:100A0000391FCB01880F892F881F990B9195280FCB
:100A1000391FCB0181709070880F991F880F991F23
:100A2000AB0142705070840F951F880F991F880F7B
:100A3000991FAB0144705070840F951F880F991F48
:100A4000880F991F68707070860F971F880F991F05
:100A5000280F391F220F331F2F5F3F4FF8012193BB
:100A600031938F01CE14DF0409F0AECFF89480915A
:100A7000540290915502892B09F04AC05C9A0000FB
:100A800000005C9880E090E00000019685339105BD
:100A9000D9F780E090E000B605FE05C05C98789438
:100AA00023E030E048C000B605FE05C05C987894AD
:100AB00024E030E040C00196813C910561F71FC001
:100AC00020FF04C05C9A0000000003C05C98000096
:100AD00000005C9880E090E0000001968332910570
:100AE000D9F73695279541505040FFEF4F3F5F07AC
:100AF00039F72D933D93A617B70721F40EC0BE0119
:100B0000635F7F4F2D913C91119748E050E0D8CF23
:100B10005C98789425E030E00EC05C9880E090E02E
:100B20000000019682339105D9F780B7806180BFBC
:100B3000789421E030E0C9012C960FB6F894DEBF1E
:100B40000FBECDBFCF91DF911F910F91FF90EF901E
:100B5000DF90CF90089580917A00F89486E080939A
:100B60007C0080917A00806480937A0080917A0082
:100B700084FFFCCF7894609178007091790080E0D8
:100B800090E00E947C142AEC34E541EC5BE30E9487
:100B9000C41124E237E94FE75CE30E94971120E09B
:100BA00030E048EC52E40E94C4110E942814CB01AA
:100BB00008951092530210925202F89484E083BF79
:100BC00014BE8091600088618093600081E680930C
:100BD000600014B815B817B818B81AB81BB87894CC
:100BE00080917A008F7780937A00A89583B781608F
:100BF00083BF8895789434E021E61BC033BF14BED0
:100C0000809160008861809360002093600014B838
:100C100015B817B818B81AB81BB8789480917A002C
:100C20008F7780937A00A89583B7816083BF88957A
:100C300078948091520290915302892BF9F2539A41
:100C4000239A8091B000816A8093B0008091B100B6
:100C500082608093B1001092B4001092B3000895A6
:100C6000982F40FF02C03C9A01C03C98443014F0D9
:100C70003A9A01C03A98842F859580FF02C03B9A2A
:100C800001C03B9890FF02C0559A01C0559894301E
:100C900014F0269A01C02698892F859580FF02C0FE
:100CA000279A01C0279860FF02C0229A01C02298AB
:100CB000643014F0209A01C02098862F859580FF1B
:100CC00002C0219A089521980895359B08C080E0BC
:100CD00060E040E00E94300620E030E072C081E039
:100CE00060E040E00E94300680ED97E028EC30E0C4
:100CF000F9013197F1F70197D9F782E060E040E020
:100D00000E94300680ED97E028EC30E0F901319741
:100D1000F1F70197D9F783E060E040E00E943006E8
:100D200080ED97E028EC30E0F9013197F1F7019779
:100D3000D9F784E060E040E00E94300680ED97E063
:100D400028EC30E0F9013197F1F70197D9F785E008
:100D500060E040E00E94300680ED97E028EC30E053
:100D6000F9013197F1F70197D9F786E060E040E0AB
:100D70000E94300680ED97E028EC30E0F9013197D1
:100D8000F1F70197D9F787E060E040E00E94300674
:100D900080ED97E028EC30E0F9013197F1F7019709
:100DA000D9F780E060E040E00E94300680ED97E0F7
:100DB00028EC30E0F9013197F1F70197D9F721E0FC
:100DC00030E0C90108951F920F920FB60F921124BF
:100DD0002F933F934F935F936F937F938F939F9343
:100DE000AF93BF93EF93FF93A895529A5A9AEAE76D
:100DF000F0E0808180688083E0E6F0E080818861B7
:100E000080831082789487E067E047E00E94300694
:100E100080E29EE40197F1F780E060E040E00E940C
:100E20003006FF91EF91BF91AF919F918F917F918C
:100E30006F915F914F913F912F910F900FBE0F9047
:100E40001F901895A0913703B091380310923E037C
:100E500020E030E0109719F4A3E0B0E001C0119752
:100E6000FD01EE0FFF1FE15DFC4F80819181019735
:100E7000C1F5F894FD01EE0FFF1FE95FFC4F808183
:100E8000918180933903FD01EE0FFF1FE15FFC4F5D
:100E90008081918180933A03FD01EE0FFF1FE95E8F
:100EA000FC4F8081918180933B03FD01EE0FFF1F7A
:100EB000E15EFC4F8081918180933C03AA0FBB1FB0
:100EC000FD01E95DFC4F8081918180933D03789421
:100ED00081E080933E03A15DBC4F11961C921E924F
:100EE00006C02F5F3F4F2430310509F0B3CF80910A
:100EF0003E03813089F480913D038D3C18F080E001
:100F000061E008C080913D03823C10F481E001C0A3
:100F100080E060E040E003C080E060E042E00E94EA
:100F200030060895CF93DF93A0913703B091380333
:100F300020E030E0109719F4A3E0B0E001C0119771
:100F4000ED01CC0FDD1FC15DDC4F888199810197D8
:100F5000A1F5FD01EE0FFF1FE95FFC4F20813181FC
:100F60003093510220935002FD01EE0FFF1FE15F0D
:100F7000FC4F8081918190934F0280934E02FD013E
:100F8000EE0FFF1FE95EFC4F4081518150934D02EF
:100F900040934C02AA0FBB1FFD01E15EFC4F019084
:100FA000F081E02DA95DBC4F6D917C911982188272
:100FB0002817390709F066C007C02F5F3F4F24305C
:100FC000310509F0B7CF5EC0452B09F05BC0213079
:100FD0003105A1F48091380290913902E80FF91F90
:100FE000F0933902E09338028091420290914302DB
:100FF0000196909343028093420244C0223031050F
:10100000A1F480913A0290913B02E80FF91FF0930E
:101010003B02E0933A02809144029091450201968E
:1010200090934502809344022DC023303105A1F4F2
:1010300080913C0290913D02E80FF91FF0933D0230
:10104000E0933C0280914602909147020196909372
:1010500047028093460216C02430310599F48091EE
:101060003E0290913F02E80FF91FF0933F02E09398
:101070003E02809148029091490201969093490264
:1010800080934802DF91CF910895209137033091EA
:10109000380360E070E040E050E02115310519F4BC
:1010A00023E030E002C021503040F901EE0FFF1F75
:1010B000E15DFC4F80819181019721F411821082C2
:1010C00061E070E04F5F5F4F4430510531F76130B0
:1010D000710519F480E061E002C081E060E040E069
:1010E0000E9430060895EF92FF920F931F93DF93B3
:1010F000CF93CDB7DEB72A970FB6F894DEBF0FBEF9
:10110000CDBF8E010F5F1F4F78019E01255F3F4FBE
:10111000F70111927F01E217F307D1F7BE016F5F6C
:101120007F4F4AE050E00E94A917F8018081809328
:10113000C6008091C00085FFFCCF0F5F1F4F0E15CA
:101140001F0599F780E28093C6008091C00085FF5B
:10115000FCCF2A960FB6F894DEBF0FBECDBFCF915D
:10116000DF911F910F91FF90EF900895EF92FF9202
:101170000F931F93DF93CF93CDB7DEB72A970FB6A8
:10118000F894DEBF0FBECDBF8E010F5F1F4F7801F9
:101190009E01255F3F4FF70111927F01E217F30790
:1011A000D1F7BE016F5F7F4F4AE050E00E94A91760
:1011B000F80180818093C6008091C00085FFFCCF3C
:1011C0000F5F1F4F0E151F0599F78AE08093C60029
:1011D0008091C00085FFFCCF2A960FB6F894DEBF41
:1011E0000FBECDBFCF91DF911F910F91FF90EF9078
:1011F0000895EF92FF920F931F93CF93DF93A091E7
:101200003703B091380320E030E0109719F4A3E0E1
:10121000B0E001C01197ED01CC0FDD1FC15DDC4FC7
:10122000888199810197C9F5FD01EE0FFF1FE95FE4
:10123000FC4F008111811093370200933602FD01AB
:10124000EE0FFF1FE15FFC4F6081718170933502EB
:1012500060933402FD01EE0FFF1FE95EFC4F4081F9
:1012600051815093330240933202AA0FBB1FFD01FC
:10127000E15EFC4FE080F180A95DBC4FED91FC91F7
:101280001982188280913102382F305830932E0203
:1012900090E00817190709F507C02F5F3F4F24306A
:1012A000310509F0B2CF36C020913002822F90E094
:1012B0006817790791F480912F0290E04817590739
:1012C00061F4231751F4C701865B9340459728F4D6
:1012D000E831F10514F0B7972CF010922D0210921E
:1012E0002C0209C080912C0290912D0201969093BE
:1012F0002D0280932C02802F8F5F80933102862FE6
:101300008F5F80933002842F8E5F80932F02C701FE
:101310000E94B608DF91CF911F910F91FF90EF903F
:1013200008952F923F924F925F926F927F928F9289
:101330009F92AF92BF92CF92DF92EF92FF920F9364
:101340001F93CF93DF9310924403109243031092A4
:1013500046031092450310924803109247031092DF
:10136000300310922F031092320310923103109227
:10137000340310923303109236031092350314B8DD
:1013800015B817B818B81AB81BB8529A5A9A81E00B
:1013900090E00E94CA178093660088EE93E028ECE4
:1013A00030E0F9013197F1F70197D9F784E090E047
:1013B0000E94CA1780933F0388EE93E028EC30E048
:1013C000F9013197F1F70197D9F788E090E00E9491
:1013D000CA178093400388EE93E028EC30E0F901CF
:1013E0003197F1F70197D9F78BE090E00E94CA1787
:1013F0008093410388EE93E028EC30E0F9013197C7
:10140000F1F70197D9F783E190E00E94CA17809322
:10141000420388EE93E028EC30E0F9013197F1F7D0
:101420000197D9F7C0E0D0E050E2C52ED12C48ECAE
:10143000A42EB12CC6010E94CA1790E0FE01EE0F47
:10144000FF1FEB53FD4F9183808380819181982F03
:1014500088279183808388EE93E0F5013197F1F737
:101460000197D9F77E01EE0CFF1C85EC92E0E80EA7
:10147000F91EF70100811181C60101960E94CA1769
:10148000080F111DF7011183008388EE93E0F50129
:101490003197F1F70197D9F7219682E090E0C80ED5
:1014A000D91ECE30D10509F0C5CFC0E0D0E010E59F
:1014B000C12ED12CB8ECAB2EB12CC6010E94CA179C
:1014C00090E0FE01EE0FFF1FEF51FD4F91838083EF
:1014D00080819181982F88279183808388EE93E083
:1014E000F5013197F1F70197D9F77E01EE0CFF1C5A
:1014F000E1EEF2E0EE0EFF1EF70100811181C60160
:1015000001960E94CA17080F111DF701118300836D
:1015100088EE93E0F5013197F1F70197D9F721961D
:1015200082E090E0C80ED91ECE30D10509F0C5CFBB
:10153000539A239A8091B000816A8093B000809181
:10154000B10082608093B1001092B4001092B30099
:10155000519A81E090E09093C5008093C40010926E
:10156000C0008091C10088608093C1008091C2005A
:1015700086608093C20080B78A6080BF83E08093DA
:101580007F0010927C0083EC80937A0010928000A0
:1015900081E08093810092E090936F0082E38093DA
:1015A00089001092880014BC85E085BD90936E0080
:1015B0008FEF87BD10920D0187E060E040E00E9450
:1015C000300680ED97E028EC30E0F9013197F1F733
:1015D0000197D9F780E067E040E00E94300680ED97
:1015E00097E028EC30E0F9013197F1F70197D9F74E
:1015F00080E060E047E00E94300680ED97E028EC54
:1016000030E0F9013197F1F70197D9F780E060E018
:1016100040E00E94300678941092300310922F031D
:10162000109232031092310310923403109233035C
:10163000109236031092350355E0452E55245394ED
:1016400040E2642E4EE4742E34E1232E31E0332E3A
:1016500021E0822E912C10920F0110920E018091A8
:101660000E0190910F01019709F0A3C0109256024C
:10167000789410920F0110920E01809110019091B8
:101680001101019739F41092B4001092B3005C98E4
:101690000C9400388091100190911101029731F45F
:1016A00010925302109252020E94D90580911001AB
:1016B00090911101039731F08091100190911101E7
:1016C000049741F580E060E040E00E94300610920F
:1016D000B4001092B3005C9815BC15C087E067E0B9
:1016E00040E00E943006C3010197F1F780E060E01E
:1016F00040E00E94300680E197E2E8ECF0E03197AC
:10170000F1F70197D1F780910E0190910F01892B8C
:1017100029F345BC8091100190911101059759F56D
:101720001092B4001092B3005C9815BC1DC00E94CA
:10173000AB058159914014F080E00FC00E94AB05C9
:101740008758914024F080E060E047E00BC00E94A1
:10175000AB058F5591401CF087E067E002C087E041
:1017600060E040E00E94300680910E0190910F01F0
:10177000892BE9F245BC80911001909111010697E7
:1017800011F4509256028091100190911101079727
:1017900081F41092B4001092B3005C9815BC02C0A2
:1017A0000E94650680910E0190910F01892BC1F373
:1017B00045BC5092560280915602813009F04BCFC1
:1017C0008091B7029091B802892BA1F5C0E0D0E0DA
:1017D00000915702109158020E94AB05080F191F83
:1017E00010935802009357022196CE31D10581F70C
:1017F0009092B8028092B70280915702909158025D
:101800000E949E178091B5029091B602892B81F4B7
:1018100080EA8093B3008093B400C3010197F1F78D
:10182000809141038093B300809142038093B40080
:1018300050920D018091B5028093590280935A0213
:10184000A0913703B091380310923E0320E030E0BE
:10185000109719F4A3E0B0E001C01197FD01EE0F5D
:10186000FF1FE15DFC4F80819181019781F5F89424
:10187000FD01EE0FFF1FE95FFC4F80819181809396
:101880003903FD01EE0FFF1FE15FFC4F8081918165
:1018900080933A03FD01EE0FFF1FE95EFC4F80814C
:1018A000918180933B03FD01EE0FFF1FE15EFC4F32
:1018B0008081918180933C03AA0FBB1FFD01E95DEC
:1018C000FC4F8081918180933D03789425C12F5FE7
:1018D0003F4F2430310509F0BBCF2CC180918902E4
:1018E00090918A0220913903FC01EE0FFF1FE5570A
:1018F000FD4F20831182019690938A028093890282
:1019000080E091E00E9497048091390390E00E946A
:10191000B6088091890290918A020E94B60880914F
:10192000B5029091B6020E94B6088091B5029091DE
:10193000B602892B09F0AAC080913903843051F492
:1019400080913C03809312011092130190926402E3
:101950008092630280913903823009F097C08091B0
:101960003C0380931401F1011182809171029091E6
:1019700072029093700280936F0280917302909133
:10198000740290937202809371028091750290911B
:101990007602909374028093730280917702909103
:1019A00078029093760280937502809179029091EB
:1019B0007A02909378028093770280917B029091D3
:1019C0007C0290937A0280937902A0917D02B0917B
:1019D0007E02B0937C02A0937B0260917F027091A3
:1019E000800270937E0260937D02E0918102F0910B
:1019F0008202F0938002E0937F0240918302509133
:101A000084025093820240938102E0908502F0901C
:101A10008602F0928402E092830220913C0330E03F
:101A200030938602209385026A0F7B1F6E0F7F1F03
:101A3000E40EF51EE20EF31E882777FD8095982FA1
:101A40000E94CA1320E030E040E450E40E94BE123D
:101A50006093690270936A0280936B0290936C02A8
:101A60000027F7FC0095102FC801B7010E94CA1388
:101A700020E030E040E450E40E94BE126093650232
:101A8000709366028093670290936802A091370377
:101A9000B091380310923E0320E030E0109719F423
:101AA000A3E0B0E001C01197FD01EE0FFF1FE15D63
:101AB000FC4F808191810197B9F5F894FD01EE0FFB
:101AC000FF1FE95FFC4F8081918180933903FD0105
:101AD000EE0FFF1FE15FFC4F8081918180933A03FD
:101AE000FD01EE0FFF1FE95EFC4F80819181809325
:101AF0003B03FD01EE0FFF1FE15EFC4F80819181F2
:101B000080933C03AA0FBB1FFD01E95DFC4F808160
:101B1000918180933D03789450923E03A15DBC4F28
:101B200011961C921E9206C02F5F3F4F2430310544
:101B300009F0B4CF80913E03813009F4CFCE80917B
:101B4000B5029091B602892B79F560916902709186
:101B50006A0280916B0290916C0220916502309133
:101B6000660240916702509168020E946A1318163B
:101B7000DCF08091140190911501C297ACF480E0E3
:101B800060E041E00E9430061092B3001092B40071
:101B900090926E0280926D029092B4028092B30293
:101BA0009092B6028092B5028091B5029091B602F1
:101BB0001816190644F490926E0280926D021092EB
:101BC000B3001092B40080916D0290916E02892B47
:101BD00009F07FC080915D0290915E02892BA1F493
:101BE00080EA8093B3008093B400C3010197F1F7BA
:101BF000809141038093B300809142038093B400AD
:101C000090925E0280925D028091630290916402E4
:101C1000019709F05EC01092640210926302009175
:101C20001201109113018091610290916202B8013A
:101C3000681B790B882777FD8095982F0E94CA131F
:101C40005B016C01109362020093610266E470E034
:101C5000601B710B882777FD8095982F0E94CA130F
:101C60007B018C01C601B50120E030E040E251E487
:101C70000E94C4119B01AC01C801B7010E9466110A
:101C80000E9428147093600260935F026B307105AC
:101C900034F08AE090E09093600280935F0280913C
:101CA0005F0290916002865F9F4F34F486EF9FEF52
:101CB0009093600280935F028091410390915F0254
:101CC0008D5F890F8093B30080914203891B8093BD
:101CD000B40080915B0290915C028D5D95400CF4A4
:101CE000BACC10925C0210925B028091B502909186
:101CF000B602009709F478C08130910581F4EBE8D1
:101D0000F2E021E030E080819181029711F420E03F
:101D100030E0329682E0E33BF807A9F738C0823022
:101D2000910581F4EBE8F2E020E030E080819181E0
:101D3000019711F421E030E0329692E0E33BF9079D
:101D4000A9F725C08330910581F4EBE8F2E021E0AA
:101D500030E080819181049711F420E030E03296E8
:101D600082E0E33BF807A9F712C084309105A1F5A2
:101D7000EBE8F2E020E030E080819181039711F4FC
:101D800021E030E0329692E0E33BF907A9F72130F9
:101D9000310551F4809187029091880201969093C9
:101DA00088028093870204C01092880210928702F2
:101DB00080918702909188020397B1F48091B502D7
:101DC0009091B60201969093B6028093B50210925C
:101DD00088021092870208C0059734F0E5E0F0E031
:101DE000F093B602E093B5028091B5029091B602ED
:101DF000019729F481E061E040E00E943006809183
:101E0000B5029091B6028230910519F480E061E04C
:101E100011C08330910519F480E061E005C0843081
:101E2000910521F480E060E041E005C005972CF0C9
:101E300081E060E040E00E94300610928A02109239
:101E40008902EBE8F2E01192119222E0E33BF20703
:101E5000D1F701CC1F920F920FB60F9211242F933E
:101E60003F934F935F936F937F938F939F93AF9322
:101E7000BF93EF93FF932091BF023091C0028091F6
:101E8000BB029091BC02820F931F9093C00280937B
:101E9000BF022091BB023091BC028091C30290919D
:101EA000C402820F931F9093C4028093C3022091B7
:101EB0005B0230915C028091BB029091BC02820F68
:101EC000931F90935C0280935B022091C10230913A
:101ED000C2028091BB029091BC0264E670E00E9455
:101EE000EA16260F371F3093C2022093C102809159
:101EF000C1029091C20281509D4720F01092C2020F
:101F00001092C1028FEF90E09093BC028093BB02CD
:101F10008FEF87BD8091BF029091C0028C5F94408B
:101F20008CF180910D01813069F58091540290917E
:101F30005502892BC1F48091590260915A0290E0B8
:101F400070E040E050E00E94B904009761F0019712
:101F500051F480E060E040E00E9430061092C00240
:101F60001092BF020FC00E9499176FEF70E00E949D
:101F7000EA169093BC028093BB028091BB029091C1
:101F8000BC0287BD8091C3029091C402885F9840D3
:101F9000A4F01092C4021092C30210924403109253
:101FA0004303109246031092450310924803109287
:101FB00047031092BE021092BD02FF91EF91BF91B4
:101FC000AF919F918F917F916F915F914F913F91D1
:101FD0002F910F900FBE0F901F901895EF92FF92C8
:101FE0000F931F937B018C0120E030E040E05FE421
:101FF0000E949A1388238CF0C801B70120E030E0DA
:1020000040E05FE40E9466110E9428149B01AC012D
:10201000205030404040504806C0C801B7010E94DF
:1020200028149B01AC01B901CA011F910F91FF90C7
:10203000EF900895A0E0B0E0E0E2F0E10C94111719
:10204000DC012B01FA019C91923008F439C1EB01BB
:102050008881823008F433C1943069F4843009F007
:102060002FC111969C9111978981981709F428C165
:10207000A0E2B1E025C1843009F421C18230A9F485
:10208000923009F01DC19A01AD0188E0EA01099082
:10209000AE01E90109929E018150C1F7E2018981F7
:1020A00011969C918923818308C1923009F407C15C
:1020B00012962D903C901397EB018A819B81149688
:1020C000AD90BD90CD90DC901797EC80FD800E8197
:1020D0001F819101281B390BB90137FF04C0662706
:1020E0007727621B730B603271050CF061C012160A
:1020F00013066CF537014801062E04C096948794A8
:10210000779467940A94D2F721E030E040E050E001
:1021100004C0220F331F441F551F6A95D2F7215068
:102120003040404050402E213F2140235123211573
:1021300031054105510521F021E030E040E050E05B
:1021400079018A01E628F728082919293CC0232BA0
:10215000D1F1260E371E35014601062E04C0969495
:102160008794779467940A94D2F721E030E040E0B6
:1021700050E004C0220F331F441F551F6A95D2F749
:1021800021503040404050402A213B214C215D21CC
:10219000211531054105510521F021E030E040E0F5
:1021A00050E059016A01A628B728C828D9280BC0D1
:1021B000821593052CF01C01AA24BB24650103C0E1
:1021C000EE24FF24870111969C91D20111968C91E7
:1021D000981709F445C0992339F0A80197012A19E5
:1021E0003B094C095D0906C0A60195012E193F095E
:1021F000400B510B57FD08C0118233822282248389
:102200003583468357831DC081E0818333822282D8
:1022100088279927DC01821B930BA40BB50B8483C1
:102220009583A683B7830DC0220F331F441F551F0C
:1022300024833583468357838281938101979383D7
:1022400082832481358146815781DA01C901019752
:10225000A109B1098F5F9F4FAF4FBF4328F30BC058
:10226000918333822282EA0CFB1C0C1D1D1DE4822B
:10227000F5820683178383E080832481358146813C
:10228000578157FF1AC0C901AA2797FDA095BA2FF9
:1022900081709070A070B0705695479537952795CE
:1022A000822B932BA42BB52B84839583A683B78392
:1022B00082819381019693838283DF0101C0D201E1
:1022C000CD01CDB7DEB7E2E10C942D17A0E2B0E06E
:1022D000ECE6F1E10C941D1769837A838B839C8370
:1022E0002D833E834F835887E9E0EE2EF12CEC0ED0
:1022F000FD1ECE010196B7010E9419168E010F5ED8
:102300001F4FCE010596B8010E9419168A8991E0E7
:1023100089278A8BC701B801AE01475E5F4F0E94D3
:102320001A100E944415A096E6E00C943917A0E21A
:10233000B0E0EDE9F1E10C941D1769837A838B839A
:102340009C832D833E834F835887F9E0EF2EF12C39
:10235000EC0EFD1ECE010196B7010E9419168E01EA
:102360000F5E1F4FCE010596B8010E941916C701D6
:10237000B801AE01475E5F4F0E941A100E944415DB
:10238000A096E6E00C943917A0E2B0E0EAECF1E1A7
:102390000C94111769837A838B839C832D833E83EE
:1023A0004F835887CE010196BE01675F7F4F0E9421
:1023B0001916CE010596BE016F5E7F4F0E94191659
:1023C0009985923088F089898230C8F0943019F468
:1023D000823051F404C0843029F4923081F480E2D8
:1023E00091E0C6C0923049F420E09A858A8998131A
:1023F00021E02A87CE010996BBC0823049F420E053
:102400009A858A89981321E02A8BCE014196B0C023
:102410002D843E844F8458886D887E888F88988C60
:10242000EE24FF248701AA24BB24650140E050E08C
:1024300060E070E0E0E0F0E0C10181709070892B15
:10244000E9F0E60CF71C081D191D9A01AB012A0DD5
:102450003B1D4C1D5D1D80E090E0A0E0B0E0E61467
:10246000F7040805190520F481E090E0A0E0B0E051
:10247000BA01A901480F591F6A1F7B1FAA0CBB1C78
:10248000CC1CDD1C97FE08C081E090E0A0E0B0E02D
:10249000A82AB92ACA2ADB2A3196E032F10549F086
:1024A000660C771C881C991C569447943794279483
:1024B000C3CFFA85EA892B893C898B859C85280FB7
:1024C000391F2E5F3F4F17C0CA0181709070892B52
:1024D00061F016950795F794E79480E090E0A0E00E
:1024E000B0E8E82AF92A0A2B1B2B769567955795B1
:1024F00047952F5F3F4F77FDE7CF0CC0440F551F27
:10250000661F771F17FD4160EE0CFF1C001F111F97
:1025100021503040403090E0590790E0690790E446
:10252000790760F32B8F3C8FDB01CA018F779070A6
:10253000A070B07080349105A105B10561F447FD2C
:102540000AC0E114F1040105110529F0405C5F4F58
:102550006F4F7F4F40781A8EFE1711F081E08A8FFF
:102560004D8F5E8F6F8F78A383E0898FCE01499660
:102570000E944415A096E2E10C942D17A8E1B0E06A
:10258000E4ECF2E10C94191769837A838B839C83C2
:102590002D833E834F835887B9E0EB2EF12CEC0E50
:1025A000FD1ECE010196B7010E9419168E010F5E25
:1025B0001F4FCE010596B8010E94191629852230B9
:1025C00008F47EC03989323010F4B8017CC08A85A5
:1025D0009A8989278A87243011F0223031F4231711
:1025E00009F06EC060E271E06EC0343039F41D86CF
:1025F0001E861F86188A1C861B8604C0323021F472
:1026000084E08987B7015FC02B853C858B899C89D5
:10261000281B390B3C872B87ED84FE840F85188996
:10262000AD88BE88CF88D88CEA14FB040C051D0544
:1026300040F4EE0CFF1C001F111F215030403C875E
:102640002B8720E030E040E050E080E090E0A0E028
:10265000B0E460E070E0EA14FB040C051D0540F0F6
:10266000282B392B4A2B5B2BEA18FB080C091D0978
:10267000B695A79597958795EE0CFF1C001F111F27
:102680006F5F7F4F6F31710531F7DA01C9018F77C5
:102690009070A070B07080349105A105B10561F40F
:1026A00027FD0AC0E114F1040105110529F0205CA1
:1026B0003F4F4F4F5F4F20782D873E874F87588B76
:1026C000BE01675F7F4FCB010E9444156896EAE028
:1026D0000C943517A8E1B0E0E0E7F3E10C941D1786
:1026E00069837A838B839C832D833E834F835887B2
:1026F00089E0E82EF12CEC0EFD1ECE010196B7010B
:102700000E9419168E010F5E1F4FCE010596B8016B
:102710000E9419168985823040F08989823028F01C
:10272000C701B8010E94911601C08FEF6896E6E0DC
:102730000C943917A8E1B0E0E0EAF3E10C941D171E
:1027400069837A838B839C832D833E834F83588751
:1027500089E0E82EF12CEC0EFD1ECE010196B701AA
:102760000E9419168E010F5E1F4FCE010596B8010B
:102770000E9419168985823040F08989823028F0BC
:10278000C701B8010E94911601C08FEF6896E6E07C
:102790000C943917A8E0B0E0E0EDF3E10C941A17BF
:1027A0009B01AC0183E08983DA01C9018827B7FD69
:1027B00083959927AA27BB27B82E211531054105F6
:1027C000510519F482E089833AC08823A9F02030AA
:1027D00080E0380780E0480780E8580729F460E087
:1027E00070E080E09FEC30C0EE24FF248701E21A05
:1027F000F30A040B150B02C079018A018EE1C82E81
:10280000D12CDC82CB82ED82FE820F831887C80137
:10281000B7010E94F51401971816190684F4082EC2
:1028200004C0EE0CFF1C001F111F0A94D2F7ED82AA
:10283000FE820F831887C81AD90ADC82CB82BA823B
:10284000CE0101960E9444152896E9E00C943617B3
:10285000ACE0B0E0EEE2F4E10C94211769837A83F6
:102860008B839C83CE010196BE016B5F7F4F0E94DC
:1028700019168D81823061F1823050F1843021F45B
:102880008E81882351F12EC02F81388537FD20C0DD
:102890006E812F3131051CF06623F9F023C08EE1E3
:1028A00090E0821B930B29853A854B855C8504C09B
:1028B00056954795379527958A95D2F76623B1F0B7
:1028C00050954095309521953F4F4F4F5F4F0EC02B
:1028D00020E030E040E050E009C02FEF3FEF4FEF45
:1028E0005FE704C020E030E040E050E8B901CA01F1
:1028F0002C96E2E00C943D17A8E0B0E0E2E8F4E1A9
:102900000C9419177B018C016115710581059105E6
:1029100019F482E0898360C083E089838EE1C82E48
:10292000D12CDC82CB82ED82FE820F831887C80116
:10293000B7010E94F514FC013197F7FF3BC0222735
:1029400033272E1B3F0B57016801022E04C0D6947B
:10295000C794B794A7940A94D2F740E050E060E09F
:1029600070E081E090E0A0E0B0E004C0880F991F23
:10297000AA1FBB1F2A95D2F70197A109B1098E2181
:102980009F21A023B1230097A105B10521F041E0CB
:1029900050E060E070E04A295B296C297D294D8375
:1029A0005E836F8378878EE190E08E1B9F0B9C8304
:1029B0008B8312C0309781F00E2E04C0EE0CFF1CEA
:1029C000001F111F0A94D2F7ED82FE820F83188731
:1029D000CE1ADF0ADC82CB821A82CE0101960E94D7
:1029E00044152896EAE00C943517EF92FF920F9366
:1029F0001F937B018C0180E0E81680E0F80681E0FF
:102A0000080780E0180788F48FEFE816F104010545
:102A1000110531F028F088E090E0A0E0B0E017C0A8
:102A200080E090E0A0E0B0E012C080E0E81680E036
:102A3000F80680E0080781E0180728F088E190E0B8
:102A4000A0E0B0E004C080E190E0A0E0B0E020E2CF
:102A500030E040E050E0281B390B4A0B5B0B04C010
:102A600016950795F794E7948A95D2F7F701E85DF4
:102A7000FE4F8081281B310941095109C9011F916D
:102A80000F91FF90EF900895DF92EF92FF920F93D6
:102A90001F93FC01E480F58006811781D18080813D
:102AA000823048F480E090E0A0E1B0E0E82AF92A22
:102AB0000A2B1B2BA5C0843009F49FC0823021F45F
:102AC000EE24FF24870105C0E114F104010511057E
:102AD00019F4E0E0F0E096C0628173819FEF623804
:102AE00079070CF05BC022E83FEF261B370B2A3139
:102AF00031052CF020E030E040E050E02AC0B80181
:102B0000A701022E04C076956795579547950A94BC
:102B1000D2F781E090E0A0E0B0E004C0880F991FF8
:102B2000AA1FBB1F2A95D2F70197A109B1098E21CF
:102B30009F21A023B1230097A105B10521F081E0D9
:102B400090E0A0E0B0E09A01AB01282B392B4A2B92
:102B50005B2BDA01C9018F779070A070B070803460
:102B60009105A105B10539F427FF09C0205C3F4F4D
:102B70004F4F5F4F04C0215C3F4F4F4F5F4FE0E02E
:102B8000F0E02030A0E03A07A0E04A07A0E45A07AE
:102B900010F0E1E0F0E079018A0127C060387105AA
:102BA00064F5FB01E158FF4FD801C7018F779070A2
:102BB000A070B07080349105A105B10539F4E7FE2D
:102BC0000DC080E490E0A0E0B0E004C08FE390E0AE
:102BD000A0E0B0E0E80EF91E0A1F1B1F17FF05C09A
:102BE00016950795F794E794319687E01695079523
:102BF000F794E7948A95D1F705C0EE24FF24870166
:102C0000EFEFF0E06E2F679566276795902F9F771F
:102C1000D794DD24D7948E2F8695492F462B582F95
:102C20005D29B701CA011F910F91FF90EF90DF90CE
:102C30000895FC01DB01408151812281622F6F7771
:102C400070E0221F2227221F9381892F880F822B59
:102C5000282F30E0991F9927991F11969C9311975F
:102C600021153105A9F5411551056105710511F4CD
:102C700082E037C082E89FEF13969C938E93129761
:102C80009A01AB0167E0220F331F441F551F6A955D
:102C9000D1F783E08C930DC0220F331F441F551FC3
:102CA00012968D919C911397019713969C938E93F6
:102CB0001297203080E0380780E0480780E458070A
:102CC00058F314962D933D934D935C931797089565
:102CD0002F3F310579F4411551056105710519F44E
:102CE00084E08C93089564FF03C081E08C9312C04C
:102CF0001C9210C02F57304013963C932E9312977E
:102D000083E08C9387E0440F551F661F771F8A95D9
:102D1000D1F7706414964D935D936D937C931797E0
:102D200008951F93DC01FB019C91923008F447C089
:102D30008081823008F443C0943051F411961C9184
:102D4000843099F58181682F70E0611B71093FC063
:102D5000843021F0923031F48230B9F181818823BE
:102D600089F12DC011961C9111978230F1F081816B
:102D70001817D9F412962D913C9113978281938163
:102D80008217930794F028173907BCF014968D9199
:102D90009D910D90BC91A02D248135814681578154
:102DA000281739074A075B0718F4112341F00AC0B6
:102DB00082179307A407B50740F4112319F061E0C7
:102DC00070E005C06FEF7FEF02C060E070E0CB0104
:102DD0001F91089597FB092E07260AD077FD04D08E
:102DE0000CD006D000201AF4709561957F4F08959D
:102DF000F6F7909581959F4F0895AA1BBB1B51E153
:102E000007C0AA1FBB1FA617B70710F0A61BB70B5A
:102E1000881F991F5A95A9F780959095BC01CD01FF
:102E200008952F923F924F925F926F927F928F926E
:102E30009F92AF92BF92CF92DF92EF92FF920F9349
:102E40001F93CF93DF93CDB7DEB7CA1BDB0B0FB653
:102E5000F894DEBF0FBECDBF09942A883988488810
:102E60005F846E847D848C849B84AA84B984C884A6
:102E7000DF80EE80FD800C811B81AA81B981CE0F9D
:102E8000D11D0FB6F894DEBF0FBECDBFED01089582
:102E9000A0E0B0E0EEE4F7E10C941917EC01A88093
:102EA000B980CA80DB80A114B104C104D10441F40B
:102EB00084E2A82E89EDB82E8BE5C82E87E0D82EA7
:102EC000C601B5012DE133EF41E050E00E94011849
:102ED00027EA31E440E050E00E94E2177B018C01D8
:102EE000C601B5012DE133EF41E050E00E94011829
:102EF000CA01B9012CEE34EF4FEF5FEF0E94E217E9
:102F00006E0D7F1D801F911F97FF04C061507040A0
:102F100080409048688379838A839B839B013F77B5
:102F2000C901CDB7DEB7EAE00C9435170E94481707
:102F3000089588E292E00E9448170895A0E0B0E06A
:102F40008093280290932902A0932A02B0932B0227
:102F50000895FB019F01E8944230C4F04532B4F477
:102F60004A3029F497FB1EF4909581959F4F642F6A
:102F700077270E94FD16805D8A330CF0895D81936E
:102F8000CB010097A1F716F45DE251931082C901BD
:102F90000C94D217F999FECF92BD81BDF89A99276A
:102FA00080B50895DC01FC01672F71917723E1F76B
:102FB000329704C07C916D9370836291AE17BF0706
:102FC000C8F30895629FD001739FF001829FE00DC6
:102FD000F11D649FE00DF11D929FF00D839FF00D98
:102FE000749FF00D659FF00D9927729FB00DE11D44
:102FF000F91F639FB00DE11DF91FBD01CF01112421
:10300000089597FB092E05260ED057FD04D014D045
:103010000AD0001C38F450954095309521953F4FCB
:103020004F4F5F4F0895F6F7909580957095619595
:103030007F4F8F4F9F4F0895A1E21A2EAA1BBB1BF3
:10304000FD010DC0AA1FBB1FEE1FFF1FA217B30774
:10305000E407F50720F0A21BB30BE40BF50B661F8A
:10306000771F881F991F1A9469F76095709580954E
:1030700090959B01AC01BD01CF010895F894FFCF5D
:1030800020202020202020202020202000010100BE
:103090000300E703E703E703E703E703E7030100B0
:1030A000000000000000000000010202030303030F
:1030B00004040404040404040505050505050505C8
:1030C00005050505050505050606060606060606A8
:1030D0000606060606060606060606060606060690
:1030E0000606060606060606070707070707070778
:1030F0000707070707070707070707070707070760
:10310000070707070707070707070707070707074F
:10311000070707070707070707070707070707073F
:103120000707070707070707080808080808080827
:10313000080808080808080808080808080808080F
:1031400008080808080808080808080808080808FF
:1031500008080808080808080808080808080808EF
:1031600008080808080808080808080808080808DF
:1031700008080808080808080808080808080808CF
:1031800008080808080808080808080808080808BF
:1031900008080808080808080808080808080808AF
:0C31A000080808080808080801000000E2
:00000001FF
